:020000040800F2
:10000000340400200D01000869010008A70D000854
:10001000690100086901000869010008000000008A
:10002000000000000000000000000000690100085E
:10003000690100080000000069010008690100086A
:1000400069010008690100086901000869010008E8
:1000500069010008690100086901000869010008D8
:1000600069010008690100086901000869010008C8
:1000700069010008690100086901000869010008B8
:100080006901000869010008C10E00086901000843
:100090006901000869010008690100086901000898
:1000A00069010008690100086901000839090008B0
:1000B000D9030008410A0008000000006901000897
:1000C000690100080000000000000000690100084C
:1000D000000000006901000869010008000000003C
:1000E00069010008690100086901000800000000BA
:1000F0000000000000000000000000000000000000
:1001000000000000000000005FF808F108B5124B85
:10011000124A9A4211D241F29852C0F6000240F2BD
:100120000003C2F2000340F20000C2F2000052F8E5
:10013000041B43F8041B8342F9D3094809494FF0D3
:1001400000028842B8BF40F8042BFADB00F07AF8CE
:1001500000F0A8F908BD00BF00000020000000204A
:100160000000002038000020FEE700BF08B54FF077
:1001700000000146024600F019FA4FF001004FF06E
:1001800000010A4600F012FA4FF002004FF00001A1
:100190000A4600F00BFA40F20C03C2F200034FF0E3
:1001A00000021A7008BD00BF38B540F20C03C2F25D
:1001B0000003588040F20802C2F2000212781A715D
:1001C0004FEA500000F5FE4404F1FF04C0F5FE457F
:1001D00005F1FF05ADB2012A0DD14FF000004FF03F
:1001E0000101224600F0E2F94FF0010001462A46E3
:1001F00000F0DCF90CE04FF000004FF001012A465E
:1002000000F0D4F94FF001000146224600F0CEF98B
:1002100047F6FF7000F0BCF938BD00BF40F208039C
:10022000C2F200031870704708B500F0FFFA4FF4EF
:100230007A5000F063F9FFF799FF4FF00100FFF7E4
:10024000EDFF08BD82B04FF48053C4F202031A6878
:1002500042F001021A6059684FF00002CFF6FF0227
:100260000A405A601A6822F0847222F480321A60BE
:100270001A6822F480221A605A6822F4FE025A6038
:100280004FF41F029A604FF00002009201921A6828
:1002900042F480321A604FF48052C4F202021368B2
:1002A00003F400330193009B03F101030093019BCE
:1002B0001BB9009BB3F5A06FF1D14FF48053C4F28A
:1002C00002031B6813F4003F14BF012300230193B2
:1002D000019B012B44D14FF40053C4F202031A686E
:1002E00042F010021A601A6822F003021A601A68BB
:1002F00042F002021A604FF48053C4F202035A68BB
:100300005A605A685A605A6842F480625A605A6861
:1003100022F47C125A605A6842F4E8125A601A6851
:1003200042F080721A604FF48052C4F202021368E5
:1003300013F0007FFBD04FF48053C4F202035A68DD
:1003400022F003025A605A6842F002025A604FF4E7
:100350008052C4F20202536803F00C03082BFAD156
:100360004FF46D43CEF200034FF000629A6002B08A
:10037000704700BF38B54FF00100014600F0B0FBF8
:100380004FF46143CEF200034FF080521A604FF0F9
:100390008044A3899BB243F01003A3814FF0000572
:1003A00025824FF00103238500F0EEFC4FEA500058
:1003B00044F6D353C1F26203A3FB0023C3F38F13AC
:1003C000A38523889BB243F00103238040F21C03E2
:1003D000C2F200031D6038BD40F21C03C2F20003EC
:1003E0001A6802F101021A604FF000024FF08043D8
:1003F0001A82704740F21C03C2F20003186870476B
:1004000008B54FF000000146024600F07BFB4FF0BC
:1004100000004FF00101024600F074FB4FF00000B5
:100420004FF00201024600F06DFB4FF000004FF06C
:100430000301024600F066FB4FF000004FF0070199
:10044000024600F05FFB4FF000004FF0040102464F
:1004500000F058FB4FF000004FF005014FF0030291
:1004600000F050FB4FF001004FF000014FF004028C
:1004700000F048FB4FF0010001464FF0040200F08D
:1004800041FB4FF001004FF002014FF0040200F079
:1004900039FB4FF000004FF007014FF0080200F069
:1004A00031FB08BDF8B500F06BFCFFF763FFFFF709
:1004B000A1FF0446FFF7A4FF00F0E2FC00F052FAAF
:1004C0004FF0000000F0D2FB4FF0010643F69827F2
:1004D000FFF790FF0546844228BF04468442F7D2C6
:1004E00000F094FA0446304600F0DCFBBC4228BF22
:1004F0003C46A0B200F0C6FB2C46E9E710B5044626
:1005000040F2AF43984298BF4FF4966400F03CFC31
:10051000B0FBF4F4A4B24FF43053C4F201039C8551
:1005200010BD00BF70B5044600F02EFC0546204605
:100530004FF41051C4F6741100F0FCFE0446284636
:1005400000F0ECFD0146204600F040FE01F004F80A
:1005500080B200F0E3FD05464FF00001C4F2FE2139
:1005600000F0F0FF18B14FF00005C4F2FE254FF483
:100570003054C4F20104B4F8446006F47F462846BF
:1005800000F0EAFF0643B6B2A4F8446070BD00BFB5
:100590004FF43053C4F201039A8D92B202FB00F083
:1005A0004FEA1040A3F84000704700BF4FF43053AB
:1005B000C4F201039B8D9BB2B2F57A4F28BF4FF472
:1005C0007A4203FB02F24FEA1242002863D101296A
:1005D00025D140F22003C2F200031B78012B18D072
:1005E0004FF43053C4F20103198C89B241F0050174
:1005F0001984198B01F47F411983198B89B241F059
:100600006001198340F22003C2F200034FF00101A0
:1006100019704FF43053C4F201039A8670470229CF
:1006200025D140F22003C2F200031B78022B18D020
:100630004FF43053C4F20103198C89B241F0050123
:100640001984198B01F47F411983198B89B241F008
:100650007001198340F22003C2F200034FF002013F
:1006600019704FF43053C4F201039A8670474FF467
:100670003052C4F20102138C23F00F034FEA0343FC
:100680004FEA1343138440F22003C2F200034FF0F9
:1006900000021A707047012861D1012924D140F26B
:1006A0002003C2F200035B78012B17D04FF43053C4
:1006B000C4F20103198C89B241F050011984198BDD
:1006C000C9B21983198B89B241F4C041198340F230
:1006D0002003C2F200034FF0010159704FF4305370
:1006E000C4F201031A877047022924D140F2200383
:1006F000C2F200035B78022B17D04FF43053C4F2E0
:100700000103198C89B241F050011984198BC9B2C7
:100710001983198B89B241F4E041198340F2200317
:10072000C2F200034FF0020159704FF43053C4F28B
:1007300001031A8770474FF43052C4F20102138C40
:1007400023F0F0034FEA03434FEA1343138440F2CC
:100750002003C2F200034FF000025A7070470228D3
:1007600062D1012925D140F22003C2F200039B7817
:10077000012B18D04FF43053C4F20103198C89B205
:1007800041F4A0611984998B01F47F419983998B7D
:1007900089B241F06001998340F22003C2F2000364
:1007A0004FF0010199704FF43053C4F201039A875E
:1007B0007047022925D140F22003C2F200039B7842
:1007C000022B18D04FF43053C4F20103198C89B2B4
:1007D00041F4A0611984998B01F47F419983998B2D
:1007E00089B241F07001998340F22003C2F2000304
:1007F0004FF0020199704FF43053C4F201039A870D
:1008000070474FF43052C4F20102138C23F470632A
:100810004FEA03434FEA1343138440F22003C2F22A
:1008200000034FF000029A70704700BF10B54FF000
:1008300001004FF00D014FF00B0200F063F94FF093
:1008400001004FF00E014FF00B0200F05BF94FF08A
:1008500001004FF00F014FF00B0200F053F94FF081
:1008600000004FF008014FF00B0200F04BF94FF081
:1008700000004FF009014FF00B0200F043F94FF078
:1008800000004FF00A014FF00B0200F03BF94FF46B
:100890000053CEF204035A6842F480625A604FF467
:1008A0006143CEF200034FF000621A604FF43054FF
:1008B000C4F2010423889BB22380A3889BB243F037
:1008C0007003A3804FF01003A38144F62060FFF76C
:1008D00015FE4FF0000001460246FFF767FE4FF09D
:1008E00001004FF000010A46FFF760FE4FF00200E2
:1008F0004FF000010A46FFF759FE4FF07E50FFF718
:1009000011FE4FF47A40FFF743FEB4F844306FEA2B
:1009100043436FEA53439BB2A4F84430A38B9BB28A
:10092000A383238C9BB243F40053238423889BB27C
:1009300043F00103238010BD08B54FF000004FF0D5
:10094000050100F04BF900F0A9FA4FF43053C4F25E
:1009500001034FF0000018824FF0050100F05CF930
:1009600008BD00BF10B582B04FF000004FF0060187
:100970004FF0040200F0C6F84FF002004FF0010102
:1009800000F0AEF84FF46143CEF200034FF0005296
:100990001A604FF48064C4F20004A3899BB243F050
:1009A0000403A381A38A9BB243F00603A382238B93
:1009B0009BB243F4007343F001032383238C9BB267
:1009C00043F0310323844FF0000323824FF00203EE
:1009D00023854FF01D038DF804304FF001038DF88F
:1009E000073001A800F0A2FA23889BB243F001036C
:1009F000238040F22403C2F200034BF643321A80F4
:100A000045F6A7525A8002B010BD00BF08B5FFF7E7
:100A1000F1FC40F22403C2F200035B6803F114030B
:100A2000984206D940F22403C2F200034FF00002BC
:100A30001A8140F22403C2F20003188908BD00BFE6
:100A400010B54FF48063C4F200031A8F9B8ED21A44
:100A500092B240F22403C2F200035B889A428CBF38
:100A6000C3EB020200224FEA024240F22404C2F227
:100A700000042188CB1AB2FBF3F34FF6FF718B42CF
:100A800028BF0B462381FFF7B5FC60604FF48063FD
:100A9000C4F200034FF000021A8210BD4FF48053DD
:100AA000C4F202031A6842F001021A6059684FF05A
:100AB0000002CFF6FF020A405A601A6822F08472E0
:100AC00022F480321A601A6822F480221A605A686E
:100AD00022F4FE025A604FF41F029A60704700BF72
:100AE00039B14FF48053C4F20203DA691043D8617C
:100AF00070474FF48053C4F20203DA6922EA00001F
:100B0000D861704710B410B1012832D063E00729D2
:100B100013D84FF40063C4F2010318684FEA81014F
:100B20004FF00F0404FA01F420EA0400186018687A
:100B300002FA01F202431A604EE0A1F108039BB2EF
:100B4000072B15D84FF40063C4F201035868A1F1D4
:100B500008014FEA81014FF00F0404FA01F420EA82
:100B600004005860586802FA01F202435A6033E008
:100B7000FEE7072913D84FF44063C4F20103186855
:100B80004FEA81014FF00F0404FA01F420EA040057
:100B90001860186802FA01F202431A601CE0A1F121
:100BA00008039BB2072B15D84FF44063C4F201032E
:100BB0005868A1F108014FEA81014FF00F0404FACF
:100BC00001F420EA04005860586802FA01F2024376
:100BD0005A6001E0FEE7FEE710BC704710B1012843
:100BE0000CD017E04FF40063C4F20103DA684FF051
:100BF000010000FA01F10A43DA6070474FF44063E4
:100C0000C4F20103DA684FF0010000FA01F10A436F
:100C1000DA607047FEE700BF10B101280DD019E07F
:100C20004FF40063C4F20103DA684FF0010000FAE8
:100C300001F122EA0102DA6070474FF44063C4F226
:100C40000103DA684FF0010000FA01F122EA010223
:100C5000DA607047FEE700BF08B540F23003C2F229
:100C600000031B780BB9FFF7DFFA08BD10B5044687
:100C7000FFF77CFA40F23003C2F200031C70FFF76A
:100C8000EBFF10BD08B541F28733984298BF0020B2
:100C900040F23003C2F200031B780BB9FFF784FA6D
:100CA00008BD00BF08B540F23003C2F200031B7854
:100CB0000BB9FFF7B3FA08BD08B5FFF7EFFE4FF029
:100CC000100000F085F84FF0020000F077F84FF4C4
:100CD0008053C4F202031A6842F480321A604FF45F
:100CE0008052C4F20202136813F4003FFBD04FF4A9
:100CF0008053C4F202035A6842F480325A605A6840
:100D000042F4E0125A601A6842F080721A604FF49E
:100D10008052C4F20202136813F0007FFBD04FF43C
:100D20008053C4F202035A6842F002025A604FF440
:100D30008052C4F202025368C3F38103022BFAD13A
:100D40004FF48053C4F202035A6842F480625A603E
:100D50005A6842F400425A609A6942F4606242F072
:100D60001C029A61DA6942F00212DA6140F234033D
:100D7000C2F200034FF42242C0F24A421A6008BD98
:100D800008B5FFF799FF08BD40F23403C2F2000333
:100D900018687047ABBE01E000207047002A00D001
:100DA00010600120704706980188034A914202D1E1
:100DB000043006907047FEE7ABBE00004FF40053CE
:100DC000C4F202031A6802F0380210431860704738
:100DD0004FF40053C4F202031A6822F010021A60A2
:100DE0001A681043186070474FF41053C4F201039F
:100DF0005A6842F480725A609A6842F4704242F033
:100E000002029A609A6B42F4041242F480629A637E
:100E10009A6842F001029A609A6842F004029A606D
:100E20004FF41052C4F20102936813F0040FFBD187
:100E3000704700BF4FF42053C4F201035A6842F4D4
:100E400080725A609A6842F4704242F002029A60DC
:100E50009A6B42F40E1242F448629A639A6842F026
:100E600001029A609A6842F004029A604FF420529C
:100E7000C4F20102936813F0040FFBD1704700BF66
:100E800008B5FFF7B1FFFFF7D5FF4FF46143CEF28E
:100E900000034FF480221A6008BD00BF4FF41053C6
:100EA000C4F201039A6842F400129A604FF420538E
:100EB000C4F201039A6842F400129A60704700BFBE
:100EC00008B54FF41053C4F201035A681B6813F0BD
:100ED000040F10D012F0800F0DD04FF41053C4F255
:100EE00001031A6822F004021A6040F20003C2F201
:100EF00000031B6898474FF42053C4F201035A685B
:100F00001B6812F0800F10D013F0040F0DD04FF4B7
:100F10002053C4F201031A6822F004021A6040F25E
:100F20000003C2F200035B68984708BD10B4C378A1
:100F30005BB34FF46D43CEF20003DB686FEA03034B
:100F4000C3F30223C3F10402417801FA02F24FF025
:100F50000F0121FA03F184782140114302784FEA0E
:100F60000111C9B24FF46143CEF200039A1882F81E
:100F7000001302784FEA521102F01F024FF00100F5
:100F800000FA02F243F8212010E003784FEA5312EE
:100F900003F01F034FF0010101FA03F14FF4614325
:100FA000CEF2000302F1200243F8221010BC704779
:100FB00080F0004002E000BF81F0004142001FBF0E
:100FC0005FEA410392EA030F7FEA226C7FEA236C17
:100FD0006AD04FEA1262D2EB1363C1BFD21841400C
:100FE00048404140B8BF5B42192B88BF704710F0A2
:100FF000004F40F4000020F07F4018BF404211F045
:10100000004F41F4000121F07F4118BF494292EAAC
:10101000030F3FD0A2F1010241FA03FC10EB0C00D8
:10102000C3F1200301FA03F100F0004302D5494265
:1010300060EB4000B0F5000F13D3B0F1807F06D312
:1010400040084FEA310102F10102FE2A51D2B1F10A
:10105000004F40EBC25008BF20F0010040EA0300FF
:101060007047490040EB000010F4000FA2F10102AC
:10107000EDD1B0FA80FCACF1080CB2EB0C0200FA36
:101080000CF0AABF00EBC25052421843BCBFD04084
:101090001843704792F0000F81F4000106BF80F4FE
:1010A00000000132013BB5E74FEA41037FEA226CC1
:1010B00018BF7FEA236C21D092EA030F04D092F08C
:1010C000000F08BF0846704790EA010F1CBF0020C0
:1010D000704712F07F4F04D1400028BF40F000401D
:1010E000704712F100723CBF00F50000704700F03D
:1010F000004343F0FE4040F4000070477FEA226264
:1011000016BF08467FEA23630146420206BF5FEA34
:10111000412390EA010F40F4800070474FF0000334
:1011200004E000BF10F0004348BF40425FEA000CFB
:1011300008BF704743F0964301464FF000001CE0A3
:1011400050EA010208BF70474FF000030AE000BFF9
:1011500050EA010208BF704711F0004302D5404237
:1011600061EB41015FEA010C02BF844601460020A9
:1011700043F0B64308BFA3F18053A3F50003BCFAC4
:101180008CF2083AA3EBC25310DB01FA02FC634471
:1011900000FA02FCC2F12002BCF1004F20FA02F278
:1011A00043EB020008BF20F00100704702F120026B
:1011B00001FA02FCC2F1200250EA4C0021FA02F2CC
:1011C00043EB020008BF20EADC7070474FF0FF0CD1
:1011D0001CEAD0521EBF1CEAD15392EA0C0F93EACC
:1011E0000C0F6FD01A4480EA010C400218BF5FEA6E
:1011F00041211ED04FF0006343EA501043EA5111E1
:10120000A0FB01310CF00040B1F5000F3EBF4900DA
:1012100041EAD3715B0040EA010062F17F02FD2ADE
:101220001DD8B3F1004F40EBC25008BF20F00100C1
:10123000704790F0000F0CF0004C08BF49024CEAD8
:10124000502040EA51207F3AC2BFD2F1FF0340EA6A
:10125000C250704740F400004FF00003013A5DDCDB
:1012600012F1190FDCBF00F000407047C2F100021C
:10127000410021FA02F1C2F1200200FA02FC5FEA09
:10128000310040F1000053EA4C0308BF20EADC7053
:10129000704792F0000F00F0004C02BF400010F4C5
:1012A000000F013AF9D040EA0C0093F0000F01F072
:1012B000004C02BF490011F4000F013BF9D041EA94
:1012C0000C018FE70CEAD15392EA0C0F18BF93EA96
:1012D0000C0F0AD030F0004C18BF31F0004CD8D1C0
:1012E00080EA010000F00040704790F0000F17BF47
:1012F00090F0004F084691F0000F91F0004F14D08D
:1013000092EA0C0F01D142020FD193EA0C0F03D1E4
:101310004B0218BF084608D180EA010000F00040E7
:1013200040F0FE4040F40000704740F0FE4040F4C2
:10133000400070474FF0FF0C1CEAD0521EBF1CEA61
:10134000D15392EA0C0F93EA0C0F69D0A2EB03027F
:1013500080EA010C49024FEA402037D04FF0805319
:1013600043EA111143EA10130CF000408B4238BFDE
:101370005B0042F17D024FF4000C8B4224BF5B1AEC
:1013800040EA0C00B3EB510F24BFA3EB510340EA3A
:101390005C00B3EB910F24BFA3EB910340EA9C00E8
:1013A000B3EBD10F24BFA3EBD10340EADC001B0158
:1013B00018BF5FEA1C1CE0D1FD2A3FF650AF8B42FC
:1013C00040EBC25008BF20F0010070470CF0004C09
:1013D0004CEA50207F32C2BFD2F1FF0340EAC25034
:1013E000704740F400004FF00003013A37E792F0F5
:1013F000000F00F0004C02BF400010F4000F013A53
:10140000F9D040EA0C0093F0000F01F0004C02BF4D
:10141000490011F4000F013BF9D041EA0C0195E7B6
:101420000CEAD15392EA0C0F08D142027FF47DAF4F
:1014300093EA0C0F7FF470AF084676E793EA0C0F3F
:1014400004D14B023FF44CAF08466EE730F0004C3D
:1014500018BF31F0004CCAD130F000427FF45CAFCD
:1014600031F000437FF43CAF5FE700BF4FF0FF3C3B
:1014700006E000BF4FF0010C02E000BF4FF0010C8E
:101480004DF804CD4FEA40024FEA41037FEA226C57
:1014900018BF7FEA236C11D001B052EA530C18BF79
:1014A00090EA010F58BFB2EB030088BFC81738BFDE
:1014B0006FEAE17018BF40F0010070477FEA226CCC
:1014C00002D15FEA402C05D17FEA236CE4D15FEAC8
:1014D000412CE1D05DF8040B704700BF84460846FC
:1014E0006146FFE70FB5FFF7C9FF002848BF10F1BD
:1014F000000F0FBD4DF808EDFFF7F4FF0CBF012002
:1015000000205DF808FB00BF4DF808EDFFF7EAFF8B
:1015100034BF012000205DF808FB00BF4DF808ED46
:10152000FFF7E0FF94BF012000205DF808FB00BF3B
:101530004DF808EDFFF7D2FF94BF012000205DF8C1
:1015400008FB00BF4DF808EDFFF7C8FF34BF0120CE
:1015500000205DF808FB00BF42000ED2B2F1FE4F42
:101560000BD34FF09E03B3EB126209D44FEA002372
:1015700043F0004323FA02F070474FF00000704739
:1015800012F1610F01D1420202D14FF0FF307047DA
:081590004FF00000704700BF9E
:0400000508000000EF
:00000001FF
