:020000040800F2
:10000000640400200D010008790100083B1D000870
:10001000790100087901000879010008000000005A
:10002000000000000000000000000000790100084E
:10003000790100080000000079010008790100083A
:1000400079010008790100087901000879010008A8
:100050007901000879010008790100087901000898
:100060007901000879010008790100087901000888
:100070007901000879010008790100087901000878
:100080007901000879010008712000087901000851
:100090007901000879010008790100087901000858
:1000A000790100087901000879010008610E000853
:1000B0001106000805100008000000007901000882
:1000C000790100080000000000000000790100082C
:1000D000000000007901000879010008000000001C
:1000E000790100087901000879010008000000008A
:1000F0000000000000000000000000000000000000
:1001000000000000000000005FF808F180B582B038
:1001100000AF42F61C13C0F600037B6040F2000300
:10012000C2F200033B600BE07B681A683B681A6010
:100130003B6803F104033B607B6803F104037B60CD
:100140003A6840F20003C2F200039A42ECD3084836
:1001500008494FF000028842B8BF40F8042BFADB90
:1001600000F0BEF800F076FA07F10807BD4680BD42
:10017000000000206800002080B400AFFEE700BF50
:1001800080B500AF00F01EFB4FF47A5000F0DCFBAE
:1001900000F01AF84FF0010000F092F880BD00BFA7
:1001A00080B400AF40F21003C2F200031B78002BB2
:1001B00006D140F21003C2F200034FF001021A70A0
:1001C000BD4680BC704700BF80B500AF4FF0000057
:1001D0004FF000014FF0000200F04AFC4FF0010028
:1001E0004FF000014FF0000200F042FC4FF002001F
:1001F0004FF000014FF0000200F03AFC40F2100313
:10020000C2F200034FF000021A7080BD80B584B0C6
:1002100000AF0346FB8040F21003C2F20003FA88ED
:100220005A8040F20C03C2F200031A7840F2100325
:10023000C2F200031A7140F21003C2F200035B889D
:100240004FEA5303FB81FB8903F5FE4303F1FF03F0
:10025000BB81FB89C3F5FE4303F1FF037B8140F2C1
:100260001003C2F200031B79012B10D1BB894FF0A0
:1002700000004FF001011A4600F0FAFB7B894FF0B5
:1002800001004FF001011A4600F0F2FB0FE07B89FC
:100290004FF000004FF001011A4600F0E9FBBB8966
:1002A0004FF001004FF001011A4600F0E1FB47F664
:1002B000FF7000F0BFFB07F11007BD4680BD00BF17
:1002C00080B483B000AF0346FB7140F20C03C2F26E
:1002D0000003FA791A7007F10C07BD4680BC70471D
:1002E00080B500AF4FF48053C4F202034FF4805244
:1002F000C4F20202126842F001021A604FF4805206
:10030000C4F202024FF48053C4F202035B68194640
:100310004FF00003CFF6FF030B4053604FF48053C0
:10032000C4F202034FF48052C4F20202126822F0B7
:10033000847222F480321A604FF48053C4F20203B4
:100340004FF48052C4F20202126822F480221A6032
:100350004FF48053C4F202034FF48052C4F20202FD
:10036000526822F4FE025A604FF48053C4F2020332
:100370004FF41F029A6000F009F84FF46D43CEF27B
:1003800000034FF000629A6080BD00BF80B500AFEF
:1003900000F002F880BD00BF80B483B000AF4FF022
:1003A00000037B604FF000033B604FF48053C4F2C6
:1003B00002034FF48052C4F20202126842F4803207
:1003C0001A604FF48053C4F202031B6803F4003335
:1003D0003B607B6803F101037B603B68002B03D12A
:1003E0007B68B3F5A06FECD14FF48053C4F20203E5
:1003F0001B6803F40033002B03D04FF001033B6074
:1004000002E04FF000033B603B68012B40F094801A
:100410004FF40053C4F202034FF40052C4F202023C
:10042000126842F010021A604FF40053C4F2020343
:100430004FF40052C4F20202126822F003021A6062
:100440004FF40053C4F202034FF40052C4F202020C
:10045000126842F002021A604FF48053C4F20203A1
:100460004FF48052C4F2020252685A604FF4805333
:10047000C4F202034FF48052C4F2020252685A607E
:100480004FF48053C4F202034FF48052C4F20202CC
:10049000526842F480625A604FF48053C4F20203FF
:1004A0004FF48052C4F20202526822F47C125A6065
:1004B0004FF48053C4F202034FF48052C4F202029C
:1004C000526842F4E8125A604FF48053C4F20203B7
:1004D0004FF48052C4F20202126842F080721A6035
:1004E00000BF4FF48053C4F202031B6803F0007393
:1004F000002BF6D04FF48053C4F202034FF4805225
:10050000C4F20202526822F003025A604FF4805390
:10051000C4F202034FF48052C4F20202526842F065
:1005200002025A6000BF4FF48053C4F202035B68BA
:1005300003F00C03082BF6D107F10C07BD4680BC75
:10054000704700BF80B483B000AF0346FB714FF427
:100550006143CEF2000397F907204FEA5212F9796E
:1005600001F01F014FF0010000FA01F143F82210E1
:1005700007F10C07BD4680BC704700BF80B582B054
:1005800000AF4FF001004FF0010100F0E5FD4FF02A
:100590001C00FFF7D7FF4FF080434FF08042928955
:1005A00092B242F0100292B29A814FF080434FF023
:1005B00000021A824FF080434FF001021A8501F0C9
:1005C000C1F803464FEA53037B607A6844F6D3537D
:1005D000C1F26203A3FB02134FEA93137B804FF037
:1005E00080437A889A854FF080434FF0804212888A
:1005F00092B242F0010292B21A8040F22003C2F29B
:1006000000034FF000021A6007F10807BD4680BDE5
:1006100080B400AF40F22003C2F200031B6803F174
:10062000010240F22003C2F200031A604FF080433F
:100630004FF000021A82BD4680BC704780B400AF04
:1006400040F22003C2F200031B681846BD4680BC7E
:10065000704700BF80B584B000AF00F0ABFFFFF77C
:100660008DFFFFF7EBFF03467B607B68FB6000F0CC
:1006700031F801F0CBFB00F021FC4FF0010000F05D
:10068000E7FE00E000BFFFF7D9FF03467B60FA6892
:100690007B689A4201D97B68FB607A68FB689A4262
:1006A000F0D97B68FB6000F091FC0346BB60BA6840
:1006B00043F698239A4202D943F69823BB604FF041
:1006C000010000F04BFFBB689BB2184600F018FF1A
:1006D000D8E700BF80B500AF4FF000004FF0000139
:1006E0004FF0000200F064FD4FF000004FF00101F8
:1006F0004FF0000200F05CFD4FF000004FF00201EF
:100700004FF0000200F054FD4FF000004FF00301E5
:100710004FF0000200F04CFD4FF000004FF00701D9
:100720004FF0000200F044FD4FF000004FF00401D4
:100730004FF0000200F03CFD4FF000004FF00501CB
:100740004FF0030200F034FD4FF001004FF00001C4
:100750004FF0040200F02CFD4FF001004FF00101BA
:100760004FF0040200F024FD4FF001004FF00201B1
:100770004FF0040200F01CFD4FF000004FF00701A5
:100780004FF0080200F014FD80BD00BF80B483B0BC
:1007900000AF0346FB714FF46143CEF2000397F9BB
:1007A00007204FEA5212F97901F01F014FF00100C2
:1007B00000FA01F143F8221007F10C07BD4680BC96
:1007C000704700BF80B500AF4FF001004FF00D0142
:1007D0004FF00B0200F0ECFC4FF001004FF00E0167
:1007E0004FF00B0200F0E4FC4FF001004FF00F015E
:1007F0004FF00B0200F0DCFC4FF000004FF008015E
:100800004FF00B0200F0D4FC4FF000004FF0090154
:100810004FF00B0200F0CCFC4FF000004FF00A014B
:100820004FF00B0200F0C4FC4FF40053CEF204036F
:100830004FF40052CEF20402526842F480625A60D1
:100840004FF01B00FFF7A2FF4FF43053C4F2010337
:100850004FF43052C4F20102128892B21A804FF45F
:100860003053C4F201034FF43052C4F201029288B3
:1008700092B242F0700292B29A804FF43053C4F2B6
:1008800001034FF010029A8144F6206000F05CF8FA
:100890004FF000004FF000014FF0000200F0E8F8C8
:1008A0004FF001004FF000014FF0000200F0E0F8BF
:1008B0004FF002004FF000014FF0000200F0D8F8B6
:1008C000204800F061F848F6B80000F0B3F84FF4A3
:1008D0003053C4F201034FF43052C4F20102B2F8B3
:1008E000442092B26FEA42426FEA524292B2A3F8B7
:1008F00044204FF43053C4F201034FF43052C4F299
:100900000102928B92B29A834FF43053C4F20103E6
:100910004FF43052C4F20102128C92B242F40052EF
:1009200092B21A844FF43053C4F201034FF43052A0
:10093000C4F20102128892B242F0010292B21A800D
:1009400080BD00BF0000803F80B584B000AF03468B
:10095000FB80FA8840F2AF439A4202D84FF4966384
:10096000FB8000F0EFFE0346FB60FB88FA68B2FBF9
:10097000F3F37B814FF43053C4F201037A899A85F3
:1009800007F11007BD4680BD90B585B000AF786017
:100990007868264901F012FE03461C4600F0D2FE9C
:1009A0000346184601F0FEFC03462046194601F0B6
:1009B00051FD0346184601F013FF03469BB218464B
:1009C00001F0F0FC0346FB604FF001031C46F868A1
:1009D000174901F0FBFE0346002B02D14FF0000344
:1009E0001C46E3B2002B01D0114BFB60F86801F00C
:1009F000F7FE03467B814FF43053C4F20103B3F892
:100A000044303B813B8923F0FF033B813A897B895A
:100A100013433B814FF43053C4F201033A89A3F8E6
:100A2000442007F11407BD4690BD00BF002474495F
:100A30000000FE4280B485B000AF0346FB80FA8818
:100A40004FF43053C4F201039B8D9BB203FB02F3BE
:100A50004FEA1343FB814FF43053C4F20103FA8988
:100A6000A3F8402007F11407BD4680BC704700BFC3
:100A700080B485B000AF13460246FA710A46BA71D7
:100A8000BB80BB88B3F57A4F02D94FF47A43BB8061
:100A9000BA884FF43053C4F201039B8D9BB203FB21
:100AA00002F34FEA1343FB81FB79002B40F09A805D
:100AB000BB79012B3ED140F22403C2F200031B7824
:100AC000012B30D04FF43053C4F201034FF43052B5
:100AD000C4F20102128C92B242F0050292B21A8460
:100AE0004FF43053C4F201034FF43052C4F2010208
:100AF000128B92B222F0FF0292B21A834FF430535B
:100B0000C4F201034FF43052C4F20102128B92B2CC
:100B100042F0600292B21A8340F22403C2F2000350
:100B20004FF001021A704FF43053C4F20103FA89F6
:100B30009A8690E1BB79022B3ED140F22403C2F2A7
:100B400000031B78022B30D04FF43053C4F2010362
:100B50004FF43052C4F20102128C92B242F00502FC
:100B600092B21A844FF43053C4F201034FF430525E
:100B7000C4F20102128B92B222F0FF0292B21A83E7
:100B80004FF43053C4F201034FF43052C4F2010267
:100B9000128B92B242F0700292B21A8340F2240396
:100BA000C2F200034FF002021A704FF43053C4F245
:100BB0000103FA899A864EE14FF43053C4F20103DF
:100BC0004FF43052C4F20102128C92B222F00F02A2
:100BD00092B21A8440F22403C2F200034FF00002E2
:100BE0001A7038E1FB79012B40F09880BB79012B1A
:100BF0003DD140F22403C2F200035B78012B2FD0D9
:100C00004FF43053C4F201034FF43052C4F20102E6
:100C1000128C92B242F0500292B21A844FF43053C6
:100C2000C4F201034FF43052C4F20102128B92B2AB
:100C3000D2B292B21A834FF43053C4F201034FF48C
:100C40003052C4F20102128B92B242F4C04292B20C
:100C50001A8340F22403C2F200034FF001025A70DB
:100C60004FF43053C4F20103FA891A87F3E0BB79D9
:100C7000022B3DD140F22403C2F200035B78022B29
:100C80002FD04FF43053C4F201034FF43052C4F26A
:100C90000102128C92B242F0500292B21A844FF4C6
:100CA0003053C4F201034FF43052C4F20102128BEC
:100CB00092B2D2B292B21A834FF43053C4F201030B
:100CC0004FF43052C4F20102128B92B242F4E0426D
:100CD00092B21A8340F22403C2F200034FF00202E0
:100CE0005A704FF43053C4F20103FA891A87B2E004
:100CF0004FF43053C4F201034FF43052C4F20102F6
:100D0000128C92B222F0F00292B21A8440F22403C2
:100D1000C2F200034FF000025A709CE0FB79022BF4
:100D200040F09980BB79012B3ED140F22403C2F2FE
:100D300000039B78012B30D04FF43053C4F20103F1
:100D40004FF43052C4F20102128C92B242F4A0620B
:100D500092B21A844FF43053C4F201034FF430526C
:100D6000C4F20102928B92B222F0FF0292B29A83F5
:100D70004FF43053C4F201034FF43052C4F2010275
:100D8000928B92B242F0600292B29A8340F22403B4
:100D9000C2F200034FF001029A704FF43053C4F2D4
:100DA0000103FA899A8756E0BB79022B3ED140F2C3
:100DB0002403C2F200039B78022B30D04FF430534F
:100DC000C4F201034FF43052C4F20102128C92B209
:100DD00042F4A06292B21A844FF43053C4F2010379
:100DE0004FF43052C4F20102928B92B222F0FF0211
:100DF00092B29A834FF43053C4F201034FF430524D
:100E0000C4F20102928B92B242F0700292B29A83C3
:100E100040F22403C2F200034FF002029A704FF432
:100E20003053C4F20103FA899A8714E04FF4305327
:100E3000C4F201034FF43052C4F20102128C92B298
:100E400022F4706292B21A8440F22403C2F20003C8
:100E50004FF000029A7007F11407BD4680BC70473E
:100E600080B500AF01F07EF84FF43053C4F20103B7
:100E70004FF000021A824FF000004FF0050100F021
:100E800069FA80BD80B483B000AF0346FB714FF4B4
:100E90006143CEF2000397F907204FEA5212F97925
:100EA00001F01F014FF0010000FA01F143F8221098
:100EB00007F10C07BD4680BC704700BF80B582B00B
:100EC00000AF4FF000004FF006014FF0040200F0B9
:100ED0006FF94FF002004FF0010100F03DF94FF0C3
:100EE0001D00FFF7CFFF4FF48063C4F200034FF4FF
:100EF0008062C4F20002928992B242F0040292B27D
:100F00009A814FF48063C4F200034FF48062C4F20C
:100F10000002928A92B242F0060292B29A824FF492
:100F20008063C4F200034FF48062C4F20002128BAB
:100F300092B242F4007242F0010292B21A834FF46C
:100F40008063C4F200034FF48062C4F20002128C8A
:100F500092B242F0310292B21A844FF48063C4F22A
:100F600000034FF000021A824FF48063C4F20003C2
:100F70004FF002021A854FF01D033B714FF0010341
:100F8000FB7107F10403184601F0E2F84FF48063A7
:100F9000C4F200034FF48062C4F20002128892B2DD
:100FA00042F0010292B21A8040F22803C2F200031A
:100FB0004BF643321A8040F22803C2F2000345F692
:100FC000A7525A8007F10807BD4680BD80B500AF23
:100FD000FFF734FB024640F22803C2F200035B68CD
:100FE00003F114039A4206D940F22803C2F2000327
:100FF0004FF000021A8140F22803C2F200031B895D
:10100000184680BD80B584B000AF4FF48063C4F251
:1010100000031B8F9AB24FF48063C4F200039B8ECF
:101020009BB2D31AFB8040F22803C2F200035B8814
:10103000FA889A4208D9FA8840F22803C2F20003DB
:101040005B88D31AFB6002E04FF00003FB6040F2C4
:101050002803C2F200031B881A4640F22803C2F29A
:1010600000035B88D31A3B60FB684FEA03423B688E
:10107000B2FBF3F3BB60BA684FF6FF739A4202D932
:101080004FF6FF73BB60BB689AB240F22803C2F20E
:1010900000031A81FFF7D2FA024640F22803C2F297
:1010A00000035A604FF48063C4F200034FF0000263
:1010B0001A8207F11007BD4680BD00BF80B400AFA3
:1010C0004FF48053C4F202034FF48052C4F2020280
:1010D000126842F001021A604FF48052C4F2020218
:1010E0004FF48053C4F202035B6819464FF00003CB
:1010F000CFF6FF030B4053604FF48053C4F202035A
:101100004FF48052C4F20202126822F0847222F478
:1011100080321A604FF48053C4F202034FF48052BD
:10112000C4F20202126822F480221A604FF4805343
:10113000C4F202034FF48052C4F20202526822F455
:10114000FE025A604FF48053C4F202034FF41F02B0
:101150009A60BD4680BC704780B483B000AF7860B1
:101160000B46FB70FB78002B0DD04FF48053C4F27C
:1011700002034FF48052C4F20202D26911467A6827
:101180000A43DA610EE04FF48053C4F202034FF4D5
:101190008052C4F20202D26911467A686FEA0202F2
:1011A0000A40DA6107F10C07BD4680BC704700BFFA
:1011B00080B483B000AF13460246FA710A46BA8083
:1011C000BB71FB79002B02D0012B5ED0BBE0BB884A
:1011D000072B27D84FF40063C4F201034FF40062D9
:1011E000C4F2010212681146BA884FEA82024FF037
:1011F0000F0000FA02F26FEA02020A401A604FF48E
:101200000063C4F201034FF40062C4F201021268E9
:101210001146B879BA884FEA820200FA02F20A430C
:101220001A6091E0BB88072B2ED9BB880F2B2BD8D7
:101230004FF40063C4F201034FF40062C4F20102F0
:1012400052681146BA88A2F108024FEA82024FF0B2
:101250000F0000FA02F26FEA02020A405A604FF4ED
:101260000063C4F201034FF40062C4F20102526849
:101270001146B879BA88A2F108024FEA820200FA50
:1012800002F20A435A605FE0FEE7BB88072B27D8CB
:101290004FF44063C4F201034FF44062C4F2010210
:1012A00012681146BA884FEA82024FF00F0000FA26
:1012B00002F26FEA02020A401A604FF44063C4F27D
:1012C00001034FF44062C4F2010212681146B8797A
:1012D000BA884FEA820200FA02F20A431A6033E047
:1012E000BB88072B2ED9BB880F2B2BD84FF440631C
:1012F000C4F201034FF44062C4F201025268114685
:10130000BA88A2F108024FEA82024FF00F0000FAF9
:1013100002F26FEA02020A405A604FF44063C4F2DC
:1013200001034FF44062C4F2010252681146B879D9
:10133000BA88A2F108024FEA820200FA02F20A43D6
:101340005A6001E0FEE7FEE707F10C07BD4680BCEE
:10135000704700BF80B483B000AF02460B46FA71FD
:10136000BB80FB79002B02D0012B14D028E04FF476
:101370000063C4F201034FF40062C4F20102D268B8
:101380001146BA884FF0010000FA02F26FEA020239
:101390000A40DA6015E04FF44063C4F201034FF4F1
:1013A0004062C4F20102D2681146BA884FF00100CF
:1013B00000FA02F26FEA02020A40DA6000BF00E0BF
:1013C000FEE707F10C07BD4680BC704780B485B0CE
:1013D00000AF02460B46FA71BB804FF00003FB736F
:1013E000FB79002B02D0012B15D029E04FF40063CC
:1013F000C4F201039B681A46BB884FF0010101FA51
:1014000003F31A40BB8822FA03F3002B0CBF00231E
:101410000123FB7315E04FF44063C4F201039B68A2
:101420001A46BB884FF0010101FA03F31A40BB884A
:1014300022FA03F3002B0CBF00230123FB7300E00F
:10144000FEE7FB7B184607F11407BD4680BC7047DA
:1014500080B582B000AF0346FB7100F043FAFEF79F
:10146000B3FE40F23403C2F20003FA791A7000F0BE
:1014700005F807F10807BD4680BD00BF80B500AF85
:1014800040F23403C2F200031B78002B02D0012B80
:1014900003D005E0FEF774FE05E000F05FF902E01E
:1014A00000F05CF900BF80BD80B500AF40F23403AE
:1014B000C2F200031B78002B02D0012B03D005E001
:1014C000FEF76EFE05E000F0D5F902E000F0D2F97B
:1014D00000BF80BD80B500AF40F23403C2F200030C
:1014E0001B78002B02D0012B03D005E0FEF76CFE29
:1014F00005E000F0F7F902E000F0F4F900BF80BD6C
:1015000080B582B000AF0346FB80FA8841F2873392
:101510009A4205D84FF00003FB80FFF7DBFF01E0A4
:10152000FFF7C2FF40F23403C2F200031B78002B26
:1015300002D0012B05D009E0FB881846FEF766FEB5
:1015400007E0FB88184600F039FA02E000F0CAF91B
:1015500000BF07F10807BD4680BD00BF80B582B05F
:1015600000AF0346FB7140F23403C2F200031B7864
:10157000002B02D0012B05D00EE0FB791846FEF7B8
:101580009FFE13E0FB79002B0CBF00230123DBB28D
:10159000184600F023FA09E0FB79002B0CBF00236A
:1015A0000123DBB2184600F019FA00BF07F1080763
:1015B000BD4680BD80B500AF00F002F880BD00BF21
:1015C00080B582B000AFFFF779FD4FF0100000F05A
:1015D000DFFB4FF0020000F0BBFB4FF48053C4F27E
:1015E00002034FF48052C4F20202126842F48032C5
:1015F0001A604FF00003FB7109E04FF48053C4F20E
:1016000002031B684FEA534303F00103FB71FB79AC
:1016100083F00103DBB2002BEFD14FF48053C4F20F
:1016200002034FF48052C4F20202526842F4803244
:101630005A604FF48053C4F202034FF48052C4F254
:101640000202526842F4E0125A604FF48053C4F22E
:1016500002034FF48052C4F20202126842F0807218
:101660001A604FF00003BB7109E04FF48053C4F2DD
:1016700002031B684FEA536303F00103BB71BB799C
:1016800083F00103DBB2002BEFD14FF48053C4F29F
:1016900002034FF48052C4F20202526842F0020286
:1016A0005A604FF000033B6009E04FF48053C4F2EE
:1016B00002035B684FEA930303F003033B603B685C
:1016C000022BF2D14FF48053C4F202034FF4805244
:1016D000C4F20202526842F480625A604FF48053AE
:1016E000C4F202034FF48052C4F20202526842F480
:1016F00000425A604FF48053C4F202034FF4805208
:10170000C4F20202926942F4606242F01C029A61E1
:101710004FF48053C4F202034FF48052C4F2020229
:10172000D26942F00212DA6140F23803C2F20003D9
:101730004FF42242C0F24A421A6007F10807BD4640
:1017400080BD00BF80B400AF40F23803C2F2000396
:101750001B681846BD4680BC704700BF80B500AF0F
:10176000FFF730F84FF47A50FFF7EEF800F0BAF8D0
:101770004FF0010000F032F900F008F841F609409E
:10178000C0F6000000F058FC80BD00BF80B582B0FC
:1017900000AF4FF000033B604FF001004FF000013D
:1017A0004FF00402FFF704FD4FF001004FF001017C
:1017B0004FF00402FFF7FCFC4FF001004FF0020174
:1017C0004FF00402FFF7F4FC4FF001004FF000016E
:1017D000FFF7FCFD03463A68D3183B604FF0010069
:1017E0004FF00101FFF7F2FD03464FEA43033A6869
:1017F000D3183B604FF001004FF00201FFF7E6FD08
:1018000003464FEA83033A68D3183B603B68002BDA
:101810002BD03B68072B28D040F23C03C2F20003D8
:101820004FF001025A774FF00003FB711AE0F9798B
:1018300040F20003C2F200031B781846FA7942F620
:10184000A403C0F600034FEAC00082189B181A7860
:1018500040F23C03C2F200035B189A77FB7903F174
:101860000103FB71FB79072BE1D907F10807BD469E
:1018700080BD00BF80B500AF40F23C03C2F2000360
:101880001B78DBB2012B2BD140F23C03C2F20003E8
:101890004FF000025A7040F23C03C2F200034FF0D6
:1018A00002021A70FEF7CAFE024640F23C03C2F280
:1018B00000035A6040F23C03C2F2000341F2883256
:1018C0005A8040F26403C2F200031B781A4640F2C9
:1018D0003C03C2F200031A7700F026F800F08EF8FD
:1018E00080BD00BF80B500AF4FF000004FF0000199
:1018F0004FF00002FFF7BCF84FF001004FF000017D
:101900004FF00002FFF7B4F84FF002004FF0000173
:101910004FF00002FFF7ACF840F23C03C2F20003C4
:101920004FF001021A7080BD80B582B000AF40F266
:101930003C03C2F200035B7FDBB2002B39D0012BEA
:1019400035D14FF000037B604FF001004FF00001F4
:10195000FFF73CFD03467A68D3187B604FF0010027
:101960004FF00101FFF732FD03464FEA43037A6867
:10197000D3187B604FF001004FF00201FFF726FD06
:1019800003464FEA83037A68D3187B6040F23C0336
:10199000C2F200037A689B1803F118039B79FB706D
:1019A000FA7840F23C03C2F200035A7002E000BF32
:1019B00000E000BF07F10807BD4680BD80B483B0DA
:1019C00000AF0346FB8040F26403C2F20003FA88D2
:1019D0005A8007F10C07BD4680BC704780B483B0C5
:1019E00000AF0346FB7140F26403C2F20003FA79D0
:1019F0001A7007F10C07BD4680BC704780B588B0EF
:101A000000AF40F23C03C2F200031B7FDBB2012BAC
:101A10001AD140F23C03C2F200035B78DBB203F15F
:101A20000103DBB2DAB240F23C03C2F2000311461A
:101A3000597053B2052B21DD40F23C03C2F2000382
:101A40004FF000025A7019E040F23C03C2F200036A
:101A50005B78DBB203F1FF33DBB2DAB240F23C0376
:101A6000C2F200031146597053B2002B06DA40F25D
:101A70003C03C2F200034FF005025A7042F6041311
:101A8000C0F6000307F114011A464FF0060308469A
:101A900011461A4600F0C4FE42F60C13C0F60003CD
:101AA00007F10C011A464FF00603084611461A4684
:101AB00000F0B6FE42F61413C0F6000307F104016D
:101AC0001A464FF00603084611461A4600F0A8FED3
:101AD00040F23C03C2F200035B889BB24FEA53031F
:101AE000FB83FB8B03F5FE4303F1FF03BB83FB8BFF
:101AF000C3F5FE4303F1FF037B8340F23C03C2F2D4
:101B000000035B78DBB25BB207F12002D31813F855
:101B10001C2C40F23C03C2F200035B889BB21046CF
:101B20004FF000011A46FEF7A3FF40F23C03C2F259
:101B300000035B78DBB25BB207F12002D31813F825
:101B40000C2CBB8B10464FF001011A46FEF790FF9C
:101B500040F23C03C2F200035B78DBB25BB207F1F8
:101B60002002D31813F8142C7B8B10464FF0010180
:101B70001A46FEF77DFF40F23C03C2F200035B7899
:101B8000DBB25BB207F12002D31813F81C3C012B27
:101B90000AD0022B0FD0002B14D140F23C03C2F22A
:101BA0000003164A9A6115E040F23C03C2F20003BA
:101BB000134A9A610EE040F23C03C2F20003114A5C
:101BC0009A6107E040F23C03C2F200034FF00002CA
:101BD0009A6100BF40F23C03C2F200031B78DBB203
:101BE000022B07D1FEF72AFD024640F23C03C2F267
:101BF00000039A6007F12007BD4680BD4C0000201D
:101C00004E0000205000002090B583B000AF4FF090
:101C1000000000F0C5F903461A4640F23C03C2F248
:101C200000031A824FF0010000F0BAF903461A4689
:101C300040F23C03C2F200035A824FF0020000F06F
:101C4000AFF903461A4640F23C03C2F200039A82FF
:101C50004FF0040000F0A4F903464FEA5303FB8061
:101C600040F23C03C2F200031B78DBB2032B51D8D5
:101C700001A252F823F000BF891C0008151D0008BE
:101C8000AD1C0008151D0008FEF7D8FC024640F206
:101C90003C03C2F20003DB689A423DD940F23C03A8
:101CA000C2F200034FF001021A7035E040F23C032B
:101CB000C2F200035B78DBB2DBB203F00103DBB2FC
:101CC000002B0CD040F23C03C2F200039B691B883E
:101CD0009BB2FA889A420ED9FFF790FE0BE040F2D1
:101CE0003C03C2F200039B691B889BB2FA889A42AC
:101CF00001D2FFF783FE40F23C03C2F200039B686F
:101D000003F11904FEF79AFC03469C4206D2FFF742
:101D100075FE03E000BF02E000BF00E000BF07F176
:101D20000C07BD4690BD00BFABBE01E00020704770
:101D3000002A00D010600120704706980188034AED
:101D4000914202D1043006907047FEE7ABBE00001E
:101D500080B485B000AF78604FF00003FB604FF4B3
:101D60000053C4F202031B68FB60FB6803F03803F6
:101D7000FB60FA687B681343FB604FF40053C4F2C6
:101D80000203FA681A6007F11407BD4680BC704769
:101D900080B483B000AF78604FF40053C4F2020304
:101DA0004FF40052C4F20202126822F010021A60CC
:101DB0004FF40053C4F202034FF40052C4F2020283
:101DC000126811467A680A431A6007F10C07BD468B
:101DD00080BC704780B483B000AF0346FB714FF402
:101DE0006143CEF2000397F907204FEA5212F979C6
:101DF00001F01F014FF0010000FA01F143F8221039
:101E000007F10C07BD4680BC704700BF80B500AF2E
:101E100000F008F800F056F84FF01200FFF7DAFF74
:101E200080BD00BF80B400AF4FF41053C4F2010373
:101E30004FF41052C4F20102526842F480725A60A8
:101E40004FF41053C4F201034FF41052C4F20102D4
:101E5000926842F4704242F002029A604FF41053CA
:101E6000C4F201034FF41052C4F20102926B42F427
:101E7000041242F480629A634FF41053C4F20103D7
:101E80004FF41052C4F20102926842F001029A60CB
:101E90004FF41053C4F201034FF41052C4F2010284
:101EA000926842F004029A6000BF4FF41053C4F2EB
:101EB00001039B6803F00403002BF6D1BD4680BCF0
:101EC000704700BF80B400AF4FF42053C4F2010349
:101ED0004FF42052C4F20102526842F480725A60F8
:101EE0004FF42053C4F201034FF42052C4F2010214
:101EF000926842F4704242F002029A604FF420531A
:101F0000C4F201034FF42052C4F20102926B42F476
:101F10000E1242F448629A634FF42053C4F2010354
:101F20004FF42052C4F20102926842F001029A601A
:101F30004FF42053C4F201034FF42052C4F20102C3
:101F4000926842F004029A6000BF4FF42053C4F23A
:101F500001039B6803F00403002BF6D1BD4680BC4F
:101F6000704700BF80B400AF4FF41053C4F20103B8
:101F70004FF41052C4F20102926842F400129A60C7
:101F80004FF42053C4F201034FF42052C4F2010273
:101F9000926842F400129A60BD4680BC704700BF50
:101FA00080B485B000AF0346FB714FF00003FB81A6
:101FB000FB79052B38D801A252F823F0D51F000871
:101FC000E31F0008F11F0008FF1F00080D20000894
:101FD0001B2000084FF41053C4F20103DB6BFB819C
:101FE00023E04FF41053C4F201031B6CFB811CE08F
:101FF0004FF41053C4F201035B6CFB8115E04FF406
:102000002053C4F20103DB6BFB810EE04FF420533D
:10201000C4F201031B6CFB8107E04FF42053C4F2B0
:1020200001035B6CFB8100E000BFFB89184607F1F0
:102030001407BD4680BC704780B483B000AF7860A1
:1020400040F20403C2F200037A681A604FF410539E
:10205000C4F201034FF41052C4F20102526842F07C
:1020600080025A6007F10C07BD4680BC704700BF74
:1020700080B582B000AF4FF41053C4F201035B6827
:1020800003F080034FEAD313002B0CBF002301237E
:10209000FB714FF41053C4F201031B6803F00403F7
:1020A0004FEA9303002B0CBF00230123BB71BB79C4
:1020B000002B14D0FB79002B11D04FF41053C4F235
:1020C00001034FF41052C4F20102126822F004021C
:1020D0001A6040F20403C2F200031B6898474FF4F1
:1020E0002053C4F201035B6803F080034FEAD3136B
:1020F000002B0CBF002301237B714FF42053C4F24B
:1021000001031B6803F004034FEA9303002B0CBF89
:10211000002301233B717B79002B14D03B79002BEA
:1021200011D04FF42053C4F201034FF42052C4F2F3
:102130000102126822F004021A6040F20803C2F29F
:1021400000031B68984707F10807BD4680BD00BF24
:1021500080B487B000AF78604FF000037B614FF030
:1021600000033B614FF00F03FB607B68DB78002BC3
:1021700047D04FF46D43CEF20003DB686FEA0303F0
:1021800003F4E0634FEA13237B617B69C3F104032B
:102190003B617B69FA6822FA03F3FB607B685B783A
:1021A0001A463B6902FA03F37B617B689B781A4607
:1021B000FB6813407A6913437B617B694FEA031321
:1021C0007B614FF46143CEF200037A6812781146C6
:1021D0007A69D2B25B1883F800234FF46143CEF2E0
:1021E00000037A6812784FEA5212D2B279680978FD
:1021F00001F01F014FF0010000FA01F143F8221035
:1022000014E04FF46143CEF200037A6812784FEA8B
:102210005212D2B27968097801F01F014FF0010023
:1022200000FA01F102F1200243F8221007F11C0725
:10223000BD4680BC704700BF80F0004002E000BF98
:1022400081F0004142001FBF5FEA410392EA030FA1
:102250007FEA226C7FEA236C6AD04FEA1262D2EBEB
:102260001363C1BFD218414048404140B8BF5B42F0
:10227000192B88BF704710F0004F40F4000020F089
:102280007F4018BF404211F0004F41F4000121F09F
:102290007F4118BF494292EA030F3FD0A2F10102E9
:1022A00041FA03FC10EB0C00C3F1200301FA03F127
:1022B00000F0004302D5494260EB4000B0F5000F4A
:1022C00013D3B0F1807F06D340084FEA310102F109
:1022D0000102FE2A51D2B1F1004F40EBC25008BFBB
:1022E00020F0010040EA03007047490040EB000085
:1022F00010F4000FA2F10102EDD1B0FA80FCACF1B4
:10230000080CB2EB0C0200FA0CF0AABF00EBC250B2
:1023100052421843BCBFD0401843704792F0000FA0
:1023200081F4000106BF80F400000132013BB5E7F3
:102330004FEA41037FEA226C18BF7FEA236C21D069
:1023400092EA030F04D092F0000F08BF08467047CE
:1023500090EA010F1CBF0020704712F07F4F04D19C
:10236000400028BF40F00040704712F100723CBFAF
:1023700000F50000704700F0004343F0FE4040F4D9
:10238000000070477FEA226216BF08467FEA236397
:102390000146420206BF5FEA412390EA010F40F482
:1023A000800070474FF0000304E000BF10F00043CE
:1023B00048BF40425FEA000C08BF704743F09643B5
:1023C00001464FF000001CE050EA010208BF7047D0
:1023D0004FF000030AE000BF50EA010208BF704757
:1023E00011F0004302D5404261EB41015FEA010C6C
:1023F00002BF84460146002043F0B64308BFA3F164
:102400008053A3F50003BCFA8CF2083AA3EBC25345
:1024100010DB01FA02FC634400FA02FCC2F1200264
:10242000BCF1004F20FA02F243EB020008BF20F09B
:102430000100704702F1200201FA02FCC2F1200201
:1024400050EA4C0021FA02F243EB020008BF20EAF6
:10245000DC7070474FF0FF0C1CEAD0521EBF1CEA24
:10246000D15392EA0C0F93EA0C0F6FD01A4480EA12
:10247000010C400218BF5FEA41211ED04FF00063FB
:1024800043EA501043EA5111A0FB01310CF0004027
:10249000B1F5000F3EBF490041EAD3715B0040EA4D
:1024A000010062F17F02FD2A1DD8B3F1004F40EB1D
:1024B000C25008BF20F00100704790F0000F0CF0F0
:1024C000004C08BF49024CEA502040EA51207F3AB4
:1024D000C2BFD2F1FF0340EAC250704740F400008F
:1024E0004FF00003013A5DDC12F1190FDCBF00F080
:1024F00000407047C2F10002410021FA02F1C2F12E
:10250000200200FA02FC5FEA310040F1000053EAC9
:102510004C0308BF20EADC70704792F0000F00F017
:10252000004C02BF400010F4000F013AF9D040EA1D
:102530000C0093F0000F01F0004C02BF490011F4B1
:10254000000F013BF9D041EA0C018FE70CEAD153AF
:1025500092EA0C0F18BF93EA0C0F0AD030F0004C2F
:1025600018BF31F0004CD8D180EA010000F00040E3
:10257000704790F0000F17BF90F0004F084691F0A1
:10258000000F91F0004F14D092EA0C0F01D14202DB
:102590000FD193EA0C0F03D14B0218BF084608D1A4
:1025A00080EA010000F0004040F0FE4040F40000EE
:1025B000704740F0FE4040F4400070474FF0FF0C81
:1025C0001CEAD0521EBF1CEAD15392EA0C0F93EAC8
:1025D0000C0F69D0A2EB030280EA010C49024FEA1A
:1025E000402037D04FF0805343EA111143EA1013D3
:1025F0000CF000408B4238BF5B0042F17D024FF48B
:10260000000C8B4224BF5B1A40EA0C00B3EB510F65
:1026100024BFA3EB510340EA5C00B3EB910F24BF4E
:10262000A3EB910340EA9C00B3EBD10F24BFA3EBD3
:10263000D10340EADC001B0118BF5FEA1C1CE0D19B
:10264000FD2A3FF650AF8B4240EBC25008BF20F04E
:10265000010070470CF0004C4CEA50207F32C2BFA2
:10266000D2F1FF0340EAC250704740F400004FF03F
:102670000003013A37E792F0000F00F0004C02BF70
:10268000400010F4000F013AF9D040EA0C0093F03A
:10269000000F01F0004C02BF490011F4000F013B94
:1026A000F9D041EA0C0195E70CEAD15392EA0C0FFC
:1026B00008D142027FF47DAF93EA0C0F7FF470AF34
:1026C000084676E793EA0C0F04D14B023FF44CAF77
:1026D00008466EE730F0004C18BF31F0004CCAD10C
:1026E00030F000427FF45CAF31F000437FF43CAF48
:1026F0005FE700BF4FF0FF3C06E000BF4FF0010C6A
:1027000002E000BF4FF0010C4DF804CD4FEA40024B
:102710004FEA41037FEA226C18BF7FEA236C11D095
:1027200001B052EA530C18BF90EA010F58BFB2EB48
:10273000030088BFC81738BF6FEAE17018BF40F0C8
:10274000010070477FEA226C02D15FEA402C05D17C
:102750007FEA236CE4D15FEA412CE1D05DF8040B01
:10276000704700BF844608466146FFE70FB5FFF794
:10277000C9FF002848BF10F1000F0FBD4DF808ED4C
:10278000FFF7F4FF0CBF012000205DF808FB00BF3D
:102790004DF808EDFFF7EAFF34BF012000205DF897
:1027A00008FB00BF4DF808EDFFF7E0FF94BF0120E4
:1027B00000205DF808FB00BF4DF808EDFFF7D2FFE1
:1027C00094BF012000205DF808FB00BF4DF808ED24
:1027D000FFF7C8FF34BF012000205DF808FB00BFF1
:1027E00042000ED2B2F1FE4F0BD34FF09E03B3EB7B
:1027F000126209D44FEA002343F0004323FA02F0A7
:1028000070474FF00000704712F1610F01D1420292
:1028100002D14FF0FF3070474FF00000704700BF0B
:102820000F2AF0B43AD941EA00039B0738D10C468D
:10283000034615462668103D1E6066685E60A66801
:102840009E60E6681034DE6010330F2DF2D8A2F1DE
:10285000100424F00F0402F00F021034032A00EBDE
:102860000403214411D90E461D46144656F8047B34
:10287000043C032C45F8047BF8D8141F24F003040F
:10288000043402F0030209191B192AB111F8014B93
:10289000013A03F8014BF9D1F0BC70470346F4E765
:1028A0000346F3E7060103020500040606000201E1
:1028B00004050306060501000304020606040005DC
:1028C00002030106060305040102000606020403D2
:1028D00000010506060402030005010606030102C5
:1028E00005040006060200010403050606010500B2
:1028F000030204060600040502010306060503049C
:1029000001000206000001010202000001020200B3
:0C291000000100000201000201000000B4
:0400000508000000EF
:00000001FF
