:020000040800F2
:100000008C070020211500088D1500088D150008AB
:100010008D1500088D1500088D15000800000000E2
:100020000000000000000000000000008D15000826
:100030008D150008000000008D1500088D150008C2
:100040008D1500088D1500088D1500088D15000808
:100050008D1500088D1500088D1500088D150008F8
:100060008D1500088D1500088D1500088D150008E8
:100070008D1500088D1500088D1500088D150008D8
:100080008D1500088D150008893F00088D150008A2
:10009000694000088D1500088D1500088D150008B1
:1000A0008D1500088D1500088D150008FD3300081A
:1000B000C52A0008AD350008000000008D150008B5
:1000C0008D15000800000000000000008D150008DC
:1000D000000000008D1500087540000800000000B9
:1000E0008D1500088D1500088D1500080000000012
:1000F0000000000000000000000000000000000000
:1001000000000000000000005FF808F180B582B038
:1001100000AF0346FB80FB88002B0AD140F2581346
:10012000C2F200031B684FF001021A824FF0000375
:100130000DE040F25413C2F200031B681B6898479D
:1001400040F25813C2F200031B6803F10A03184679
:1001500007F10807BD4680BD80B500AF40F25813D7
:10016000C2F200031B68DA7840F22403C2F20003F3
:100170005B789A4225D840F25813C2F200031B68FC
:100180009B78002B1DD140F25813C2F200031B686C
:100190009B88002B15D140F25813C2F200031A6855
:1001A00040F25813C2F200031B68DB78937240F2EE
:1001B0005413C2F200031B685B6898474FF00003BA
:1001C00001E04FF00203184680BD00BF80B582B049
:1001D00000AF0346FB80FB88002B0AD140F2581386
:1001E000C2F200031B684FF001021A824FF00003B5
:1001F0000DE040F25413C2F200031B689B6898475D
:1002000040F25813C2F200031B6803F10C031846B6
:1002100007F10807BD4680BD80B582B000AF40F24F
:100220003013C2F200031B689A6940F25813C2F2FD
:1002300000031B68597940F25813C2F200031B688F
:10024000DB780846194690470346FB7140F2581385
:10025000C2F200031B689B7A002B3AD0FB79002B7B
:100260000FD140F25813C2F200031B681B79002B18
:1002700007D140F25813C2F200031B689B78002B91
:1002800002D04FF0020326E0FB79002B21D140F28F
:100290005413C2F200031B68DB68984740F25813FE
:1002A000C2F200031A6840F25813C2F200031B683E
:1002B0005B79D37240F25813C2F200031A6840F21D
:1002C0005813C2F200031B68DB7813734FF000036E
:1002D00001E04FF00203184607F10807BD4680BD54
:1002E00080B584B000AF0346FB80FB88002B0AD1A9
:1002F00040F25813C2F200031B684FF002021A8248
:100300004FF00003C5E040F20C13C2F200034FF0BF
:1003100000021A8040F25813C2F200031B681B78D7
:1003200003F07F03002B47D140F25813C2F20003C1
:100330001B685B7AFB73FB7B03F02003002B0DD063
:1003400040F20C13C2F200031B7843F00203DAB24E
:1003500040F20C13C2F200031A700CE040F20C13CE
:10036000C2F200031B7823F00203DAB240F20C134E
:10037000C2F200031A70FB7B03F04003002B0DD088
:1003800040F20C13C2F200031B7843F00103DAB20F
:1003900040F20C13C2F200031A706FE040F20C132B
:1003A000C2F200031B7823F00103DAB240F20C130F
:1003B000C2F200031A7061E040F25813C2F2000367
:1003C0001B681B7803F07F03012B04D140F20C1350
:1003D000C2F200035DE040F25813C2F200031B6852
:1003E0001B7803F07F03022B45D140F25813C2F271
:1003F00000031B685B79BB73BB7B03F00F037B734C
:10040000BB7B5BB2002B1ADA7B7B4FEA830303F1E1
:10041000804303F5B8431B689BB203F03003102BF5
:100420002CD140F20C13C2F200031B7843F00103FD
:10043000DAB240F20C13C2F200031A701EE07B7BAA
:100440004FEA830303F1804303F5B8431B689BB273
:1004500003F44053B3F5805F10D140F20C13C2F2A5
:1004600000031B7843F00103DAB240F20C13C2F22E
:1004700000031A7002E04FF000030AE040F2541348
:10048000C2F200031B681B69984740F20C13C2F2CA
:100490000003184607F11007BD4680BD90B587B030
:1004A00000AF40F25813C2F200031B681B7803F040
:1004B0007F033B613B69002B11D140F25813C2F21C
:1004C00000031A6840F25813C2F200031B685B7AFB
:1004D00023F02003DBB253724FF00003F1E03B69DD
:1004E000022B40F0EC8040F25813C2F200031B686C
:1004F0005B88002B07D140F25813C2F200031B683F
:100500001B79002B02D04FF00203DAE040F2240303
:10051000C2F20003FB6040F25813C2F200031B68F2
:100520005B79BB60BB6823F080037B607B683B60CA
:1005300040F25813C2F200031B685B79DBB25BB276
:10054000002B0CDA3B684FEA830303F1804303F589
:10055000B8431B689BB203F030037B610BE03B6840
:100560004FEA830303F1804303F5B8431B689BB252
:1005700003F440537B61FB681B781A467B689A4200
:100580000AD97B69002B07D040F25813C2F200034E
:100590001B689B7A002B02D14FF0020391E0BB68ED
:1005A00003F08003002B19D03B684FEA830303F16B
:1005B000804303F5B8431B689BB203F03003102B54
:1005C00073D13B68DBB2184601F028FD3B68DBB213
:1005D00018464FF0300101F0F9FB66E03B684FEA46
:1005E000830303F1804303F5B8431B689BB203F414
:1005F0004053B3F5805F58D13B68002B2ED13B6848
:10060000DAB240F22803C2F2000393F82C3010460D
:10061000194601F0DBFD3B684FEA830303F1804399
:1006200003F5B8431B689BB223F4804323F07003A7
:100630009CB284F480539CB284F400539CB23B6817
:100640004FEA830303F1804202F5B84248F2800387
:10065000CFF6FF7323439BB2136026E03B68DBB207
:10066000184601F0ABFC3B684FEA830303F180437B
:1006700003F5B8431B689BB223F4804323F0700357
:100680009CB284F480539CB284F400539CB23B68C7
:100690004FEA830303F1804202F5B84248F2800337
:1006A000CFF6FF7323439BB2136040F25413C2F2A0
:1006B00000031B685B6998474FF0000301E04FF0AF
:1006C0000203184607F11C07BD4690BD90B585B0E2
:1006D00000AF40F25813C2F200031B685B79BB60A5
:1006E000BB6823F080037B607B683B6040F258135B
:1006F000C2F200031B685B79DBB25BB2002B0CDA41
:100700003B684FEA830303F1804303F5B8431B685A
:100710009BB203F03003FB600BE03B684FEA8303BE
:1007200003F1804303F5B8431B689BB203F44053C5
:10073000FB6040F22403C2F200031B781A463B68B8
:100740009A4212D940F25813C2F200031B685B8828
:10075000002B0AD1FB68002B07D040F25813C2F2DD
:1007600000031B689B7A002B02D14FF002034CE080
:10077000BB6803F08003002B1FD03B684FEA830364
:1007800003F1804303F5B8431B689BB223F4E043B5
:1007900023F040039CB284F010039CB23B684FEA04
:1007A000830303F1804202F5B84248F28003CFF69A
:1007B000FF7323439BB213601EE03B684FEA830341
:1007C00003F1804303F5B8431B689BB223F48043D5
:1007D00023F070039CB284F480539CB23B684FEAD0
:1007E000830303F1804202F5B84248F28003CFF65A
:1007F000FF7323439BB2136040F25413C2F2000311
:100800001B689B6998474FF00003184607F11407CF
:10081000BD4690BD80B500AF40F25813C2F2000350
:100820001A6840F25813C2F200031B685B7A43F067
:100830002003DBB2537240F25413C2F200031B6870
:10084000DB6998474FF00003184680BD80B485B03F
:1008500000AF03463960FB8040F25813C2F2000338
:100860001B685B8AFB60FB88002B0ED140F258139B
:10087000C2F200031B683A689188FA6892B28A1A39
:1008800092B21A824FF0000303E03B681A68FB68DB
:10089000D318184607F11407BD4680BC704700BF47
:1008A00080B584B000AF40F25813C2F200031B6859
:1008B00003F11003BB60BB681B887B60BB689B684F
:1008C000002B30D07B68002B2DD0BB689B88FB6051
:1008D000FA687B689A4201D97B68FB60BB689B68B9
:1008E000FA6892B21046984703463B60BB681A8884
:1008F000FB689BB2D31A9AB2BB681A80BB685A884D
:10090000FB689BB2D3189AB2BB685A804FF00000C4
:1009100001F01CFC03461A46FB689BB2386811467E
:100920001A4603F055FFBB681B88002B13D040F21A
:100930002213C2F200034FF440521A804FF000001D
:100940004FF0000101F022FC40F22413C2F2000338
:100950004FF030021A80BB681A88BB689B889A42A5
:1009600008D340F25813C2F200031B684FF0030291
:100970001A7230E0BB681B88002B08D040F2581375
:10098000C2F200031B684FF005021A7223E0BB6835
:100990001B88002B1FD140F25813C2F200031B68C2
:1009A0004FF006021A7245F65043C4F200031B686A
:1009B0009BB21A4643F20203C2F20003D3184FEA75
:1009C00043034FF000021A6040F22413C2F2000306
:1009D0004FF030021A8007F11007BD4680BD00BFFE
:1009E00080B586B000AF40F25813C2F200031B6816
:1009F00003F11003FB60FB681B88BB6040F25813D7
:100A0000C2F200031B681B7A7B61BB68002B37D1E5
:100A10007B69042B34D140F2F403C2F200031B784B
:100A2000012B22D145F65043C4F200031B689BB250
:100A30001A4643F20203C2F20003D3184FEA4303FB
:100A40004FF000021A6040F22413C2F200034FF08C
:100A500030021A804FF004037B6140F2F403C2F2CB
:100A600000034FF000021A7057E04FF007037B615C
:100A700040F22413C2F200034FF010021A804CE03F
:100A8000FB689B883B61BA683B699A4202D84FF089
:100A9000040301E04FF002037B613A69BB689A42AC
:100AA00001D9BB683B61FB689B683A6992B210460A
:100AB000984703467B604FF0000001F029FB034696
:100AC0001A463B699BB2786811461A4603F032FE1B
:100AD0003B699BB24FF00000194601F057FBFB68E1
:100AE0001A883B699BB2D31A9AB2FB681A80FB68DA
:100AF0005A883B699BB2D3189AB2FB685A8040F27D
:100B00002413C2F200034FF030021A8040F2221385
:100B1000C2F200034FF440521A8040F25813C2F25E
:100B200000031B687A69D2B21A7207F11807BD4632
:100B300080BD00BF80B584B000AF4FF00203FB73EF
:100B400040F25813C2F200031B685B787B6040F2EE
:100B50005813C2F200031B681B7803F07F03002BBD
:100B600076D17B68092B04D1FFF7F6FA0346FB73B5
:100B70009EE07B68052B29D140F25813C2F2000396
:100B80001B68DB78DBB25BB2002B17DB40F258133B
:100B9000C2F200031B689B78002B0FD140F2581360
:100BA000C2F200031B689B88002B07D140F2581348
:100BB000C2F200031B689B7A002B03D04FF008039E
:100BC000BB60AEE04FF00003FB7371E07B68032B6A
:100BD00018D140F25813C2F200031B68DB78012BD6
:100BE0000CD140F25813C2F200031B689B88002B03
:100BF00004D1FFF70FFE0346FB7359E04FF00203E9
:100C0000FB7356E07B68012B52D140F25813C2F2BD
:100C100000031B68DB78012B16D140F25813C2F297
:100C200000031B689B88002B0ED140F25813C2F2C0
:100C300000031B685B7A03F02003002B04D0FFF74E
:100C40002DFC0346FB7334E04FF00203FB732FE0EF
:100C500040F25813C2F200031B681B7803F07F03B5
:100C6000012B07D17B680B2B23D1FFF7D5FA034665
:100C7000FB731EE040F25813C2F200031B681B789E
:100C800003F07F03022B0FD17B68012B04D1FFF708
:100C900005FC0346FB730CE07B68032B09D1FFF7CF
:100CA00015FD0346FB7304E04FF00203FB7300E005
:100CB00000BFFB7B002B12D040F23013C2F20003C6
:100CC0001B685B697A68D2B2104698470346FB738B
:100CD000FB7B032B03D14FF00903BB6021E0FB7BBF
:100CE000002B03D04FF00803BB601AE04FF006035F
:100CF000BB6045F65043C4F200031B689BB21A4622
:100D000043F20203C2F20003D3184FEA43034FF049
:100D100000021A6040F22413C2F200034FF03002C6
:100D20001A8040F25813C2F200031B68BA68D2B2AC
:100D30001A7207F11007BD4680BD00BF80B58AB0AA
:100D400000AF40F25813C2F200031B685B78BB612E
:100D50004FF000037B624FF000037B61BB69062B01
:100D600033D140F25813C2F200031B681B7803F022
:100D70007F03002B40F03C8140F25813C2F2000385
:100D80001B689B78FB74FB7C012B07D140F230136E
:100D9000C2F200031B68DB697B6229E1FB7C022B4A
:100DA00007D140F23013C2F200031B681B6A7B625A
:100DB0001EE1FB7C032B40F01B8140F23013C2F29A
:100DC00000031B685B6A7B6212E1BB69002B40F089
:100DD000B58040F25813C2F200031B685B88002BF9
:100DE00040F0AC8040F25813C2F200031B68DB886D
:100DF000022B40F0A38040F25813C2F200031B689C
:100E00001B79002B40F09A8040F25813C2F2000385
:100E10001B681B7803F07F03002B0DD140F25813A1
:100E2000C2F200031B689B88002B05D140F2E1232E
:100E3000C0F600037B62DAE040F25813C2F200030E
:100E40001B681B7803F07F03012B22D140F2301383
:100E5000C2F200031B689A6940F25813C2F2000301
:100E60001B685B7918464FF0000190470346002B42
:100E700040F0BD8040F25813C2F200031B689B7A19
:100E8000002B00F0B48040F2E123C0F600037B6247
:100E9000ADE040F25813C2F200031B681B7803F068
:100EA0007F03022B40F0A38040F25813C2F20003EC
:100EB0001B685B7903F00F03FB6040F25813C2F22A
:100EC00000031B685B7903F07003BB6040F25813AA
:100ED000C2F200031B685B79DBB25BB2002B0CDA59
:100EE000FB684FEA830303F1804303F5B8431B68B3
:100EF0009BB203F03003FB610BE0FB684FEA830316
:100F000003F1804303F5B8431B689BB203F44053DD
:100F1000FB6140F22403C2F200031B781A46FB680F
:100F20009A4264D9BB68002B61D1FB69002B5ED06B
:100F300040F2E123C0F600037B6258E0BB69082B56
:100F40000FD140F25813C2F200031B681B7803F064
:100F50007F03002B4CD140F20D13C0F600037B62DF
:100F600046E0BB690A2B43D140F25813C2F200039A
:100F70001B681B7803F07F03012B39D140F2581313
:100F8000C2F200031B689B7A002B31D040F2581349
:100F9000C2F200031B685B88002B29D140F2581372
:100FA000C2F200031B681B79002B21D140F25813B9
:100FB000C2F200031B68DB88012B19D140F2301309
:100FC000C2F200031B689A6940F25813C2F2000390
:100FD0001B685B7918464FF0000190470346002BD1
:100FE00006D140F2CD13C0F600037B6200E000BFE3
:100FF0007B6A002B17D040F25813C2F200031B6823
:101000007A6992B25A8240F25813C2F200031B6806
:101010007A6A9A617B6A4FF0000098474FF00003AC
:1010200087F823301DE040F23013C2F200031B6842
:101030001A6940F25813C2F200031B685B78184625
:101040009047034687F8233097F82330032B08D1C5
:1010500040F25813C2F200031B684FF009021A72E3
:10106000ACE040F25813C2F200031B681A8A4FF634
:10107000FF739A4208D140F25813C2F200031B6872
:101080004FF009021A7299E097F82330022B07D02B
:1010900040F25813C2F200031B681B8A002B08D1D0
:1010A00040F25813C2F200031B684FF008021A7294
:1010B00084E040F25813C2F200031B681B78DBB2D5
:1010C0005BB2002B6ADA40F25813C2F200031B68CD
:1010D000DB887B6040F25813C2F200031B681B8A56
:1010E0001A467B689A4208D940F25813C2F20003AC
:1010F0001B687A6892B21A8240E040F25813C2F23A
:1011000000031B681A8A40F25813C2F200031B68DE
:10111000DB889A4232D240F25813C2F200031B68B5
:101120001A8A40F23013C2F200031B6893F82C3085
:101130009A4207D240F2F403C2F200034FF00002D9
:101140001A701BE040F25813C2F200031B681B8A9E
:101150001A4640F23013C2F200031B6893F82C3099
:1011600092FBF3F103FB01F3D31A002B06D140F2FB
:10117000F403C2F200034FF001021A7040F2581358
:10118000C2F200031A6840F23013C2F200031B6877
:1011900093F82C309382FFF723FC0EE040F25813B3
:1011A000C2F200031B684FF003021A7240F22213CE
:1011B000C2F200034FF440521A8000BF07F1280723
:1011C000BD4680BD90B583B000AF4FF00103FB80FA
:1011D00045F65043C4F200031B689BB21A4643F223
:1011E0000403C2F20003D3184FEA43031B689BB207
:1011F00003F1005303F540534FEA43033B6040F2D1
:101200005813C2F200031B681B7A092B4DD040F221
:101210005813C2F200031A683B681978117003F181
:1012200001033B6040F25813C2F200031A683B68A6
:101230001978517003F101033B603A68FB884FEA6B
:101240004303D3183B6040F25813C2F200031C68FA
:101250003B681A8803F102033B60104601F026F850
:10126000034663803A68FB884FEA4303D3183B6028
:1012700040F25813C2F200031C683B681A8803F15D
:1012800002033B60104601F011F80346A3803A6860
:10129000FB884FEA4303D3183B6040F25813C2F275
:1012A00000031B683A681288DA8040F25813C2F2D1
:1012B00000031B684FF001021A7240F25813C2F289
:1012C00000031B68DB88002B02D1FFF733FC01E031
:1012D000FFF734FD00F0AAF80346184607F10C07A3
:1012E000BD4690BD80B582B000AF40F25813C2F247
:1012F00000031B681B7A7B607B68022B02D07B6833
:10130000042B09D1FFF76CFB40F25813C2F2000323
:101310001B681B7A7B6032E07B68062B2CD140F285
:101320005813C2F200031B685B78052B19D140F2F9
:101330005813C2F200031B681B7803F07F03002BD5
:101340000FD140F25813C2F200031B68DB78184635
:1013500000F09CF840F25413C2F200031B681B6AB1
:10136000984740F23013C2F200031B689B6898470D
:101370004FF008037B6002E04FF008037B6040F20F
:101380005813C2F200031B687A68D2B21A7200F0D6
:101390004DF80346184607F10807BD4680BD00BF5B
:1013A00080B582B000AF40F25813C2F200031B6850
:1013B0001B7A7B607B68022B02D07B68042B03D1F5
:1013C0004FF008037B6020E07B68032B02D07B6832
:1013D000052B09D1FFF764FA40F25813C2F200035B
:1013E0001B681B7A7B6010E07B68072B0AD140F2F8
:1013F0003013C2F200031B68DB6898474FF0080304
:101400007B6002E04FF008037B6040F25813C2F2A9
:1014100000031B687A68D2B21A7200F007F803461C
:10142000184607F10807BD4680BD00BF80B500AF74
:1014300040F22803C2F2000393F82C304FF0000072
:10144000194600F0C3FE40F25813C2F200031B68B5
:101450001B7A082B0DD140F22213C2F200034FF485
:1014600080521A8040F22413C2F200034FF010029F
:101470001A8040F25813C2F200031B681B7A092B32
:1014800014BF00230123DBB2184680BD80B485B0B1
:1014900000AF0346FB7140F22403C2F200031B7845
:1014A000BB604FF00003FB6021E0FB68DBB24FEA5A
:1014B000830303F1804303F5B843FA68D2B24FEADD
:1014C000820202F1804202F5B842126892B21146DD
:1014D00040F60F720A4042F4004242F08002F9687E
:1014E000C9B20A431A60FB6803F10103FB60FA68A2
:1014F000BB689A42D9D345F64C43C4F20003FA794B
:1015000062F07F02D2B21A6007F11407BD4680BCB8
:10151000704700BF80B400AFBD4680BC704700BFBD
:1015200080B582B000AF44F6BC73C0F600037B60A8
:1015300040F20003C2F200033B600BE07B681A68D4
:101540003B681A603B6803F104033B607B6803F16E
:1015500004037B603A6840F2F403C2F200039A424B
:10156000ECD3084808494FF000028842B8BF40F861
:10157000042BFADB00F0BEFA01F034FB07F1080798
:10158000BD4680BDF40000208C03002080B400AF75
:10159000FEE700BF80B500AF01F0E2FB4FF47A50E8
:1015A00001F0A0FC00F006F84FF0010000F07EF81A
:1015B00080BD00BF80B500AF4FF000004FF00001CC
:1015C0004FF0000201F022FD4FF001004FF000014A
:1015D0004FF0000201F01AFD4FF002004FF0000141
:1015E0004FF0000201F012FD40F21413C2F20003AA
:1015F0004FF000021A7080BD80B584B000AF034682
:10160000FB8040F21413C2F20003FA885A8040F2C1
:101610001013C2F200031A7840F21413C2F200034E
:101620001A7140F21413C2F200035B884FEA5303AD
:10163000FB81FB8903F5FE4303F1FF03BB81FB89BB
:10164000C3F5FE4303F1FF037B8140F21413C2F2A2
:1016500000031B79012B10D1BB894FF000004FF024
:1016600001011A4601F0D2FC7B894FF001004FF0D6
:1016700001011A4601F0CAFC0FE07B894FF000001F
:101680004FF001011A4601F0C1FCBB894FF0010087
:101690004FF001011A4601F0B9FC47F6FF7001F066
:1016A00097FC07F11007BD4680BD00BF80B483B032
:1016B00000AF0346FB7140F21013C2F20003FA7947
:1016C0001A7007F10C07BD4680BC704790B583B017
:1016D00000AF4FF00003FB80F5E140F28833C2F227
:1016E00000031B889BB2DBB203F00F03DAB240F2B7
:1016F0003413C2F200031A7040F23413C2F2000332
:101700001B78002B40F06F814FF4B843C4F2000304
:101710001B689AB240F22213C2F200031A8040F210
:101720002213C2F200031B889BB203F030039AB26B
:1017300040F22413C2F200031A8040F22213C2F2D4
:1017400000031B889BB203F440539AB240F2221369
:10175000C2F200031A804FF4B843C4F200031B68BE
:101760009BB24BF6BF741C4084F4005484F02004F8
:101770004FF4B842C4F20002A1B248F28003CFF69F
:10178000FF730B439BB2136040F28833C2F2000335
:101790001B889BB203F01003002B5AD14FF4B843BF
:1017A000C4F200034FF4B842C4F20002126892B2CD
:1017B000114648F60F720A401A60FFF793FD4FF486
:1017C000B843C4F200031B689BB24BF6BF741C40C5
:1017D00040F22213C2F200031B889BB203F4805331
:1017E0009BB2002B01D084F4805440F22213C2F249
:1017F00000031B889BB203F400539BB2002B01D063
:1018000084F4005440F22413C2F200031B889BB2FC
:1018100003F010039BB2002B01D084F0100440F2BF
:101820002413C2F200031B889BB203F020039BB277
:10183000002B01D084F020044FF4B842C4F200021F
:10184000A1B248F28003CFF6FF730B439BB2136043
:101850004BE14FF4B843C4F200031B689BB2FB801A
:10186000FB889BB203F40063002B5AD04FF4B843BB
:10187000C4F200034FF4B842C4F20002126892B2FC
:10188000114640F68F720A401A60FFF79BFC4FF436
:10189000B843C4F200031B689BB24BF6BF741C40F4
:1018A00040F22213C2F200031B889BB203F4805360
:1018B0009BB2002B01D084F4805440F22213C2F278
:1018C00000031B889BB203F400539BB2002B01D092
:1018D00084F4005440F22413C2F200031B889BB22C
:1018E00003F010039BB2002B01D084F0100440F2EF
:1018F0002413C2F200031B889BB203F020039BB2A7
:10190000002B01D084F020044FF4B842C4F200024E
:10191000A1B248F28003CFF6FF730B439BB2136072
:10192000E3E0FB889BB29BB21BB2002B80F2CB8022
:101930004FF4B843C4F200034FF4B842C4F20002BB
:10194000126892B2114640F68F720A401A60FFF791
:1019500027FD4FF4B843C4F200031B689BB24BF65B
:10196000BF741C4040F22213C2F200031B889BB2DA
:1019700003F480539BB2002B01D084F4805440F2D6
:101980002213C2F200031B889BB203F400539BB2E4
:10199000002B01D084F4005440F22413C2F200035F
:1019A0001B889BB203F010039BB2002B01D084F084
:1019B000100440F22413C2F200031B889BB203F010
:1019C00020039BB2002B01D084F020044FF4B842D6
:1019D000C4F20002A1B248F28003CFF6FF730B43BA
:1019E0009BB2136081E040F23413C2F200031B7813
:1019F0004FEA830303F1804303F5B8431B689BB2AE
:101A0000FB80FB889BB29BB21BB2002B2ADA40F210
:101A10003413C2F200031B784FEA830303F18043BF
:101A200003F5B84340F23412C2F2000212784FEAD2
:101A3000820202F1804202F5B842126892B2114667
:101A400040F68F720A401A6040F23413C2F200036B
:101A50001B7803F1FF3240F2D803C2F2000353F8BF
:101A600022309847FB889BB203F08003002B2AD0DA
:101A700040F23413C2F200031B784FEA830303F1F0
:101A8000804303F5B84340F23412C2F200021278E8
:101A90004FEA820202F1804202F5B842126892B225
:101AA000114648F60F720A401A6040F23413C2F22F
:101AB00000031B7803F1FF3240F2BC03C2F20003C3
:101AC00053F82230984745F64443C4F200031B689C
:101AD0009BB21A4640F28833C2F2000311461980C5
:101AE00093B21BB2002BFFF6F8AD07F10C07BD4611
:101AF00090BD00BF80B500AF4FF48053C4F2020325
:101B00004FF48052C4F20202126842F001021A60DD
:101B10004FF48052C4F202024FF48053C4F2020325
:101B20005B6819464FF00003CFF6FF030B4053608C
:101B30004FF48053C4F202034FF48052C4F2020205
:101B4000126822F0847222F480321A604FF48053BB
:101B5000C4F202034FF48052C4F20202126822F46B
:101B600080221A604FF48053C4F202034FF4805273
:101B7000C4F20202526822F4FE025A604FF480530B
:101B8000C4F202034FF41F029A6000F009F84FF408
:101B90006D43CEF200034FF000629A6080BD00BF3B
:101BA00080B500AF00F002F880BD00BF80B483B004
:101BB00000AF4FF000037B604FF000033B604FF439
:101BC0008053C4F202034FF48052C4F2020212683E
:101BD00042F480321A604FF48053C4F202031B684F
:101BE00003F400333B607B6803F101037B603B68D7
:101BF000002B03D17B68B3F5A06FECD14FF4805379
:101C0000C4F202031B6803F40033002B03D04FF02F
:101C100001033B6002E04FF000033B603B68012B97
:101C200040F094804FF40053C4F202034FF400528A
:101C3000C4F20202126842F010021A604FF400531C
:101C4000C4F202034FF40052C4F20202126822F0FE
:101C500003021A604FF40053C4F202034FF400521F
:101C6000C4F20202126842F002021A604FF480537A
:101C7000C4F202034FF48052C4F2020252685A6066
:101C80004FF48053C4F202034FF48052C4F20202B4
:101C900052685A604FF48053C4F202034FF48052EA
:101CA000C4F20202526842F480625A604FF48053D8
:101CB000C4F202034FF48052C4F20202526822F4CA
:101CC0007C125A604FF48053C4F202034FF48052E6
:101CD000C4F20202526842F4E8125A604FF4805390
:101CE000C4F202034FF48052C4F20202126842F0BE
:101CF00080721A6000BF4FF48053C4F202031B6865
:101D000003F00073002BF6D04FF48053C4F20203AB
:101D10004FF48052C4F20202526822F003025A6069
:101D20004FF48053C4F202034FF48052C4F2020213
:101D3000526842F002025A6000BF4FF48053C4F26E
:101D400002035B6803F00C03082BF6D107F10C07C4
:101D5000BD4680BC704700BF80B483B000AF03466F
:101D6000FB8045F65043C4F20003F9884FF6F87241
:101D70000A401A6007F10C07BD4680BC704700BFDF
:101D800080B483B000AF02460B46FA71BB80FB798A
:101D90004FEA830303F1804303F5B843FA794FEA2E
:101DA000820202F1804202F5B842126892B222F435
:101DB000EC4222F0700291B2BA880A4392B292B217
:101DC0001A6007F10C07BD4680BC704790B482B022
:101DD00000AF02460B46FA71BB80FB794FEA8303E2
:101DE00003F1804303F5B8431B689BB223F4E0433F
:101DF00023F040039CB2BB8803F010039BB2002B7E
:101E000002D084F010039CB2BB8803F020039BB285
:101E1000002B02D084F020039CB2FB794FEA8303AD
:101E200003F1804202F5B84248F28003CFF6FF7317
:101E300023439BB2136007F10807BD4690BC70476F
:101E400090B482B000AF02460B46FA71BB80FB79BA
:101E50004FEA830303F1804303F5B8431B689BB249
:101E600023F4804323F070039CB2BB8803F48053B7
:101E70009BB2002B02D084F480539CB2BB8803F445
:101E800000539BB2002B02D084F400539CB2FB7928
:101E90004FEA830303F1804202F5B84248F280031F
:101EA000CFF6FF7323439BB2136007F10807BD46CB
:101EB00090BC704790B482B000AF0346FB71FB79D1
:101EC0004FEA830303F1804303F5B8431B689BB2D9
:101ED00023F4E04323F040039CB284F010039CB24F
:101EE00084F020039CB2FB794FEA830303F1804224
:101EF00002F5B84248F28003CFF6FF7323439BB24A
:101F0000136007F10807BD4690BC704790B482B0DB
:101F100000AF0346FB71FB794FEA830303F1804373
:101F200003F5B8431B689BB223F4804323F070038E
:101F30009CB284F480539CB284F400539CB2FB792D
:101F40004FEA830303F1804202F5B84248F280036E
:101F5000CFF6FF7323439BB2136007F10807BD461A
:101F600090BC704780B483B000AF0346FB71FB792F
:101F70004FEA830303F1804202F5B842FB794FEA4E
:101F8000830303F1804303F5B8431B689BB223F43A
:101F9000F8734FEA03534FEA13539BB243F07F4366
:101FA00043F47F0343F4004343F080039BB29BB2AE
:101FB000136007F10C07BD4680BC704780B483B046
:101FC00000AF0346FB71FB794FEA830303F18043C3
:101FD00003F5B8431B689BB203F48043002B18D071
:101FE000FB794FEA830303F1804303F5B843FA79A1
:101FF0004FEA820202F1804202F5B842126892B2C0
:10200000114640F60F720A4042F4404242F080020C
:102010001A6007F10C07BD4680BC704780B483B0DE
:1020200000AF0346FB71FB794FEA830303F1804362
:1020300003F5B8431B689BB203F04003002B18D094
:10204000FB794FEA830303F1804303F5B843FA7940
:102050004FEA820202F1804202F5B842126892B25F
:10206000114640F60F720A4042F4004242F0C002AC
:102070001A6007F10C07BD4680BC704780B483B07E
:1020800000AF02460B46FA71BB8045F65043C4F2DE
:1020900000031B689BB21A46FB794FEAC303D318AF
:1020A00003F1005303F540534FEA4303BA884FEA64
:1020B000520292B24FEA42021A6007F10C07BD4683
:1020C00080BC704780B483B000AF02460B46FA7103
:1020D000BB8045F65043C4F200031B689BB21A460E
:1020E000FB794FEAC303D21843F20403C2F20003A0
:1020F000D3184FEA4303BA884FEA520292B24FEA2A
:1021000042021A6007F10C07BD4680BC704700BF51
:1021100080B483B000AF0346FB7145F65043C4F270
:1021200000031B689BB21A46FB794FEAC303D3181E
:1021300003F1005303F540534FEA43031B689BB27E
:10214000184607F10C07BD4680BC704780B483B0C9
:1021500000AF0346FB7145F65043C4F200031B6811
:102160009BB21A46FB794FEAC303D21843F2040329
:10217000C2F20003D3184FEA43031B689BB2184610
:1021800007F10C07BD4680BC704700BF80B483B028
:1021900000AF02460B46FA71BB8045F65043C4F2CD
:1021A00000031B689BB21A46FB794FEAC303D2189F
:1021B00043F20203C2F20003D3184FEA4303BA8882
:1021C0001A6007F10C07BD4680BC704780B485B02B
:1021D00000AF02460B46FA71BB8045F65043C4F28D
:1021E00000031B689BB21A46FB794FEAC303D2185F
:1021F00043F20603C2F20003D3184FEA4303BB6065
:10220000BB883E2B15D9BB884FEA5313FB81BB8893
:1022100003F01F03002B03D1FB8903F1FF33FB8184
:10222000FB894FEA832343F400431A46BB681A60D4
:1022300013E0BB884FEA5303FB81BB8803F0010323
:10224000DBB2002B03D0FB8903F10103FB81FB8987
:102250004FEA83231A46BB681A6007F11407BD468C
:1022600080BC704780B483B000AF0346FB7145F675
:102270005043C4F200031B689BB21A46FB794FEA35
:10228000C303D21843F20603C2F20003D3184FEA85
:1022900043031B689BB24FEA83534FEA93539BB2AD
:1022A000184607F10C07BD4680BC704780B485B066
:1022B00000AF0346FB80FB88FB73FB884FEA1323C8
:1022C0009BB29AB2FB7B4FEA03239BB213439BB2B0
:1022D000BB81BB89184607F11407BD4680BC704717
:1022E00080B500AF4FF0000001F00AFA4FF4000093
:1022F0004FF0010101F014FA80BD00BF80B582B03B
:1023000000AF4FF4C06002F08DF94FF014033B7141
:102310004FF001037B714FF00003BB714FF00103DD
:10232000FB7107F10403184602F090F907F1080762
:10233000BD4680BD80B483B000AF0346FB7107F19A
:102340000C07BD4680BC704780B400AFBD4680BC62
:10235000704700BF80B400AF4FF001031846BD4680
:1023600080BC704780B582B000AF40F2F503C2F286
:1023700000031B78012B00F0A48040F28023C2F2FE
:1023800000031A6840F27C23C2F200031B689A42E1
:1023900007D140F2F503C2F200034FF000021A70B9
:1023A0008FE040F2B803C2F200031B689AB240F219
:1023B000B403C2F200031B689BB2D31A9BB2BB806A
:1023C00040F28023C2F200031A6840F27C23C2F27A
:1023D00000031B689A4219D0B7F90430002B12DCB5
:1023E00044F6BA73C0F600031B881A4640F28423F1
:1023F000C2F20003D3181A4640F2B403C2F200033B
:102400001B68D31A01E0B7F9043001E04FF0000374
:10241000FB80FB88402B02D94FF04003FB8040F249
:10242000B403C2F200031A68FB8810464FF0C001E3
:102430001A4602F07FF940F2B403C2F200031A68B0
:10244000FB88D21840F2B403C2F200031A60FA8883
:1024500040F28023C2F200031B68D21840F28023AE
:10246000C2F200031A6040F2B403C2F200031B6818
:102470001A4640F28423C2F20003D21A44F6BA7319
:10248000C0F600031B889A4211DB40F2B403C2F28B
:1024900000031A6844F6BA73C0F600031B88C3F140
:1024A0000003D21840F2B403C2F200031A60FB88A2
:1024B0004FF001001946FFF769FE4FF00100FFF7EA
:1024C000F9FC07F10807BD4680BD00BF80B584B0A8
:1024D00000AF4FF2E873C1F6FF731B68FB604FF269
:1024E000EC73C1F6FF731B68BB604FF2F073C1F66B
:1024F000FF731B687B60FA687B68D318FB60FB681E
:10250000002B0BD0F86807494FF0080200F00EF8D6
:10251000B86805494FF0040200F008F807F1100709
:10252000BD4680BD020000201200002080B487B0AC
:1025300000AFF860B9601346FB714FF00003FB7504
:102540004FF00003FB7531E0FB684FEA1373092B72
:102550000DD8FB7D4FEA4303BA68D318FA684FEAF7
:102560001272D2B202F13002D2B21A700CE0FB7DCC
:102570004FEA4303BA68D318FA684FEA1272D2B22C
:1025800002F13702D2B21A70FB684FEA0313FB6004
:10259000FB7D4FEA430303F10103BA68D3184FF000
:1025A00000021A70FB7D03F10103FB75FA7DFB79D4
:1025B0009A42C9D307F11C07BD4680BC704700BFD3
:1025C00080B500AFFFF782FF40F25813C2F200035C
:1025D0001B684FF000029A7200F096FA01F050FB6F
:1025E000FFF7B2FE40F2F803C2F200034FF0000220
:1025F0001A6080BD80B500AF40F25813C2F20003EC
:102600001B684FF000029A7240F25813C2F20003A6
:102610001A6844F61473C0F60003DB79537240F273
:102620005813C2F200031B684FF00002DA724FF039
:102630000000FFF791FB4FF000004FF40071FFF72F
:102640009FFB4FF000004FF01001FFF7BFFB4FF072
:1026500000004FF04001FFF735FD4FF000004FF054
:102660008001FFF70BFD4FF00000FFF77BFC40F20D
:102670002803C2F2000393F82C304FF000001946F3
:10268000FFF7A4FD4FF00000FFF740FC4FF0010002
:102690004FF00001FFF774FB4FF001004FF0C00155
:1026A000FFF7ECFC4FF001004FF02001FFF78EFB2D
:1026B0004FF001004FF00001FFF7C2FB4FF00200A6
:1026C0004FF4C061FFF75CFB4FF002004FF48071E4
:1026D000FFF7D4FC4FF002004FF00001FFF7B0FB12
:1026E0004FF002004FF02001FFF770FB4FF00300A6
:1026F0004FF00001FFF744FB4FF003004FF48871E7
:10270000FFF7E0FC4FF003004FF04001FFF75EFDE4
:102710004FF003004FF44051FFF792FB4FF00300DE
:102720004FF00001FFF752FB4FF00000FEF7AEFE46
:1027300040F2F803C2F200034FF001021A6080BDBC
:1027400080B483B000AF40F23813C2F200037B6064
:102750007B689B7A002B06D040F2F803C2F200039C
:102760004FF005021A6007F10C07BD4680BC7047A8
:1027700080B400AF40F2F803C2F200034FF004024D
:102780001A60BD4680BC704780B500AF40F2F603CA
:10279000C2F200031B78202B08D1FFF7DBFD40F2CB
:1027A000F603C2F200034FF000021A7080BD00BFB2
:1027B00080B400AFBD4680BC704700BF80B584B018
:1027C00000AF0346FB714FF00003FB60FB79212B48
:1027D0000FD140F25813C2F200031B681B7803F0BC
:1027E0007F03212B1ED142F68113C0F60003FB604C
:1027F00018E0FB79202B15D140F25813C2F20003E8
:102800001B681B7803F07F03212B04D142F6BD1314
:10281000C0F60003FB6040F2F603C2F200034FF083
:1028200020021A70FB68002B02D14FF0020314E063
:1028300040F25813C2F200031B68FA689A6140F232
:102840005813C2F200031B684FF000025A82FB6863
:102850004FF0000098474FF00003184607F11007AB
:10286000BD4680BD80B483B000AF0346FB7140F22B
:102870005813C2F200031B681B7803F07F03212B5F
:102880000BD1FB79022B02D14FF0000307E0FB795B
:10289000222B02D14FF0000301E04FF00203184653
:1028A00007F10C07BD4680BC704700BF80B582B001
:1028B00000AF0346FB80FB88184640F27C01C2F261
:1028C0000001FDF7C3FF0346184607F10807BD46A0
:1028D00080BD00BF80B582B000AF0346FB80FB889F
:1028E000184640F28401C2F20001FDF7AFFF034633
:1028F000184607F10807BD4680BD00BF80B584B00B
:1029000000AF0346FB8040F25813C2F200031B687D
:10291000DB78FB73FB7B042B02D94FF000030DE047
:10292000FB7B4FEAC30240F28C03C2F20003D318D0
:10293000FA8810461946FDF789FF0346184607F145
:102940001007BD4680BD00BF80B483B000AF024613
:102950000B46FA71BB71BB79002B02D04FF002031A
:1029600007E0FB79012B02D94FF0020301E04FF0A1
:102970000003184607F10C07BD4680BC704700BF36
:1029800080B483B000AF0346FB80FB88002B0AD1E4
:1029900040F25813C2F200031B684FF008021A827B
:1029A0004FF0000303E040F21C03C2F2000318469C
:1029B00007F10C07BD4680BC704700BF80B483B0F0
:1029C00000AF0346FB80FB88002B0AD140F258136E
:1029D000C2F200031B684FF008021A824FF0000396
:1029E00003E040F21C03C2F20003184607F10C0793
:1029F000BD4680BC704700BF80B483B000AF0346C3
:102A0000FB714FF46143CEF2000397F907204FEAC0
:102A10005212F97901F01F014FF0010000FA01F1A3
:102A200043F8221007F10C07BD4680BC704700BF79
:102A300080B582B000AF4FF001004FF0010100F00F
:102A40006FFE4FF01C00FFF7D7FF4FF080434FF0B1
:102A50008042928992B242F0100292B29A814FF073
:102A600080434FF000021A824FF080434FF0010282
:102A70001A8501F0F9F803464FEA53037B607A6840
:102A800044F6D353C1F26203A3FB02134FEA93133C
:102A90007B804FF080437A889A854FF080434FF0D7
:102AA0008042128892B242F0010292B21A8040F241
:102AB0002813C2F200034FF000021A6007F1080762
:102AC000BD4680BD80B400AF40F22813C2F20003BF
:102AD0001B6803F1010240F22813C2F200031A60DE
:102AE0004FF080434FF000021A82BD4680BC704711
:102AF00080B400AF40F22813C2F200031B681846EE
:102B0000BD4680BC704700BF80B582B000AF4FF0BB
:102B10000100FFF70FFC4FF00103FB8045F6404337
:102B2000C4F20003FA881A6040F25C13C2F2000398
:102B30004FF000021A8045F64043C4F2000340F211
:102B40005C12C2F2000212881A6045F64443C4F2D5
:102B500000034FF000021A6040F25C13C2F200035F
:102B60004FF4E0521A8045F64043C4F2000340F2AD
:102B70005C12C2F2000212881A604FF0000318467D
:102B800007F10807BD4680BD80B500AF40F258137D
:102B9000C2F2000340F23812C2F200021A6040F2A0
:102BA0005813C2F200031B684FF002021A7240F27F
:102BB0003013C2F2000340F22802C2F200021A608F
:102BC00040F25413C2F2000340F25802C2F2000273
:102BD0001A6040F23013C2F200031B681B6898476A
:102BE00080BD00BF80B584B000AF00F073FFFFF779
:102BF0001FFFFFF77DFF03467B607B68FB6000F0F3
:102C000037F801F0F7F800F02DFC4FF0000000F06D
:102C1000F9FEFFF765FBFFF771FBFFF7B5FF00E07B
:102C200000BFFFF765FF03467B60FA687B689A4246
:102C300001D97B68FB607A68FB689A42F0D97B68AF
:102C4000FB6000F097FC0346BB60BA6843F698232C
:102C50009A4202D943F69823BB604FF0010000F07E
:102C60001DFFBB689BB2184600F0F4FED8E700BF1A
:102C700080B500AF4FF000004FF000014FF00002B0
:102C800000F07AFD4FF000004FF001014FF000021C
:102C900000F072FD4FF000004FF002014FF0000213
:102CA00000F06AFD4FF000004FF003014FF000020A
:102CB00000F062FD4FF000004FF007014FF00002FE
:102CC00000F05AFD4FF000004FF004014FF00002F9
:102CD00000F052FD4FF000004FF005014FF00302ED
:102CE00000F04AFD4FF001004FF000014FF00402E8
:102CF00000F042FD4FF001004FF001014FF00402DF
:102D000000F03AFD4FF001004FF002014FF00402D5
:102D100000F032FD4FF000004FF007014FF00802C5
:102D200000F02AFD80BD00BF80B483B000AF034631
:102D3000FB714FF46143CEF2000397F907204FEA8D
:102D40005212F97901F01F014FF0010000FA01F170
:102D500043F8221007F10C07BD4680BC704700BF46
:102D600080B500AF4FF001004FF00D014FF00B02A6
:102D700000F002FD4FF001004FF00E014FF00B028A
:102D800000F0FAFC4FF001004FF00F014FF00B0282
:102D900000F0F2FC4FF000004FF008014FF00B0282
:102DA00000F0EAFC4FF000004FF009014FF00B0279
:102DB00000F0E2FC4FF000004FF00A014FF00B0270
:102DC00000F0DAFC4FF40053CEF204034FF400524B
:102DD000CEF20402526842F480625A604FF01B0047
:102DE000FFF7A2FF4FF43053C4F201034FF4305207
:102DF000C4F20102128892B21A804FF43053C4F226
:102E000001034FF43052C4F20102928892B242F0B0
:102E1000700292B29A804FF43053C4F201034FF023
:102E200010029A8144F6206000F05CF84FF0000038
:102E30004FF000014FF0000200F0E8F84FF0010001
:102E40004FF000014FF0000200F0E0F84FF00200F8
:102E50004FF000014FF0000200F0D8F8204800F0D9
:102E600061F84FF47A4000F0B3F84FF43053C4F2F5
:102E700001034FF43052C4F20102B2F8442092B27E
:102E80006FEA42426FEA524292B2A3F844204FF4F2
:102E90003053C4F201034FF43052C4F20102928B5A
:102EA00092B29A834FF43053C4F201034FF430527C
:102EB000C4F20102128C92B242F4005292B21A840D
:102EC0004FF43053C4F201034FF43052C4F2010204
:102ED000128892B242F0010292B21A8080BD00BF05
:102EE0000000803F80B584B000AF0346FB80FA88C5
:102EF00040F2AF439A4202D84FF49663FB8000F051
:102F0000B3FE0346FB60FB88FA68B2FBF3F37B81F8
:102F10004FF43053C4F201037A899A8507F1100700
:102F2000BD4680BD90B585B000AF78607868264911
:102F300001F0B4FE03461C4600F096FE0346184618
:102F400001F0A0FD03462046194601F0F3FD0346BB
:102F5000184601F0B5FF03469BB2184601F092FDFA
:102F60000346FB604FF001031C46F868174901F067
:102F70009DFF0346002B02D14FF000031C46E3B235
:102F8000002B01D0114BFB60F86801F099FF03465C
:102F90007B814FF43053C4F20103B3F844303B81DA
:102FA0003B8923F0FF033B813A897B8913433B81B3
:102FB0004FF43053C4F201033A89A3F8442007F1D7
:102FC0001407BD4690BD00BF002474490000FE42B6
:102FD00080B485B000AF0346FB80FA884FF43053CD
:102FE000C4F201039B8D9BB203FB02F34FEA134330
:102FF000FB814FF43053C4F20103FA89A3F8402057
:1030000007F11407BD4680BC704700BF80B485B08F
:1030100000AF13460246FA710A46BA71BB80BB88FC
:10302000B3F57A4F02D94FF47A43BB80BA884FF494
:103030003053C4F201039B8D9BB203FB02F34FEAB2
:103040001343FB81FB79002B40F09A80BB79012B65
:103050003ED140F26013C2F200031B78012B30D046
:103060004FF43053C4F201034FF43052C4F2010262
:10307000128C92B242F0050292B21A844FF430538D
:10308000C4F201034FF43052C4F20102128B92B227
:1030900022F0FF0292B21A834FF43053C4F20103BC
:1030A0004FF43052C4F20102128B92B242F060022D
:1030B00092B21A8340F26013C2F200034FF0010291
:1030C0001A704FF43053C4F20103FA899A8690E1E2
:1030D000BB79022B3ED140F26013C2F200031B7891
:1030E000022B30D04FF43053C4F201034FF430526E
:1030F000C4F20102128C92B242F0050292B21A841A
:103100004FF43053C4F201034FF43052C4F20102C1
:10311000128B92B222F0FF0292B21A834FF4305314
:10312000C4F201034FF43052C4F20102128B92B286
:1031300042F0700292B21A8340F26013C2F20003AE
:103140004FF002021A704FF43053C4F20103FA89AF
:103150009A864EE14FF43053C4F201034FF43052DB
:10316000C4F20102128C92B222F00F0292B21A84BF
:1031700040F26013C2F200034FF000021A7038E10F
:10318000FB79012B40F09880BB79012B3DD140F2B7
:103190006013C2F200035B78012B2FD04FF4305341
:1031A000C4F201034FF43052C4F20102128C92B205
:1031B00042F0500292B21A844FF43053C4F2010329
:1031C0004FF43052C4F20102128B92B2D2B292B2D8
:1031D0001A834FF43053C4F201034FF43052C4F257
:1031E0000102128B92B242F4C04292B21A8340F2B0
:1031F0006013C2F200034FF001025A704FF43053D3
:10320000C4F20103FA891A87F3E0BB79022B3DD19E
:1032100040F26013C2F200035B78022B2FD04FF410
:103220003053C4F201034FF43052C4F20102128C45
:1032300092B242F0500292B21A844FF43053C4F268
:1032400001034FF43052C4F20102128B92B2D2B297
:1032500092B21A834FF43053C4F201034FF4305248
:10326000C4F20102128B92B242F4E04292B21A838B
:1032700040F26013C2F200034FF002025A704FF4A2
:103280003053C4F20103FA891A87B2E04FF4305385
:10329000C4F201034FF43052C4F20102128C92B214
:1032A00022F0F00292B21A8440F26013C2F20003DC
:1032B0004FF000025A709CE0FB79022B40F099809D
:1032C000BB79012B3ED140F26013C2F200039B7820
:1032D000012B30D04FF43053C4F201034FF430527D
:1032E000C4F20102128C92B242F4A06292B21A8429
:1032F0004FF43053C4F201034FF43052C4F20102D0
:10330000928B92B222F0FF0292B29A834FF4305322
:10331000C4F201034FF43052C4F20102928B92B214
:1033200042F0600292B29A8340F26013C2F200034C
:103330004FF001029A704FF43053C4F20103FA893E
:103340009A8756E0BB79022B3ED140F26013C2F25D
:1033500000039B78022B30D04FF43053C4F20103AA
:103360004FF43052C4F20102128C92B242F4A062C5
:1033700092B21A844FF43053C4F201034FF4305226
:10338000C4F20102928B92B222F0FF0292B29A83AF
:103390004FF43053C4F201034FF43052C4F201022F
:1033A000928B92B242F0700292B29A8340F2601312
:1033B000C2F200034FF002029A704FF43053C4F28D
:1033C0000103FA899A8714E04FF43053C4F20103E1
:1033D0004FF43052C4F20102128C92B222F47062A5
:1033E00092B21A8440F26013C2F200034FF000025E
:1033F0009A7007F11407BD4680BC704780B500AFD6
:103400004FF000004FF0050100F088FA00F09EFD3B
:103410004FF43053C4F201034FF000021A824FF010
:1034200000004FF0050100F0B1FA80BD80B483B018
:1034300000AF0346FB714FF46143CEF2000397F9EE
:1034400007204FEA5212F97901F01F014FF00100F5
:1034500000FA01F143F8221007F10C07BD4680BCC9
:10346000704700BF80B582B000AF4FF000004FF052
:1034700006014FF0040200F07FF94FF002004FF018
:10348000010100F04DF94FF01D00FFF7CFFF4FF4A1
:103490008063C4F200034FF48062C4F20002928998
:1034A00092B242F0040292B29A814FF48063C4F265
:1034B00000034FF48062C4F20002928A92B242F09A
:1034C000060292B29A824FF48063C4F200034FF472
:1034D0008062C4F20002128B92B242F4007242F097
:1034E000010292B21A834FF48063C4F200034FF4D6
:1034F0008062C4F20002128C92B242F0310292B2A7
:103500001A844FF48063C4F200034FF000021A8261
:103510004FF48063C4F200034FF002021A854FF0AB
:103520001D033B714FF00103FB7107F104031846C3
:1035300001F08CF84FF48063C4F200034FF4806212
:10354000C4F20002128892B242F0010292B21A80D2
:1035500040F26413C2F200034BF643321A8040F289
:103560006413C2F2000345F6A7525A8007F1080718
:10357000BD4680BD80B500AFFFF7BAFA024640F203
:103580006413C2F200035B6803F114039A4206D984
:1035900040F26413C2F200034FF000021A8140F2BD
:1035A0006413C2F200031B89184680BD80B584B045
:1035B00000AF4FF48063C4F200031B8F9AB24FF444
:1035C0008063C4F200039B8E9BB2D31AFB8040F24F
:1035D0006413C2F200035B88FA889A4208D9FA8819
:1035E00040F26413C2F200035B88D31AFB6002E06E
:1035F0004FF00003FB6040F26413C2F200031B882B
:103600001A4640F26413C2F200035B88D31A3B608F
:10361000FB684FEA03423B68B2FBF3F3BB60BA6856
:103620004FF6FF739A4202D94FF6FF73BB60BB6837
:103630009AB240F26413C2F200031A81FFF758FAFB
:10364000024640F26413C2F200035A604FF48063F2
:10365000C4F200034FF000021A8207F11007BD46C2
:1036600080BD00BF80B400AF4FF48053C4F20203AA
:103670004FF48052C4F20202126842F001021A6052
:103680004FF48052C4F202024FF48053C4F202039A
:103690005B6819464FF00003CFF6FF030B40536001
:1036A0004FF48053C4F202034FF48052C4F202027A
:1036B000126822F0847222F480321A604FF4805330
:1036C000C4F202034FF48052C4F20202126822F4E0
:1036D00080221A604FF48053C4F202034FF48052E8
:1036E000C4F20202526822F4FE025A604FF4805380
:1036F000C4F202034FF41F029A60BD4680BC7047BB
:1037000080B483B000AF78604FF0D803C4F2422396
:103710007A681A6007F10C07BD4680BC704700BF8D
:1037200080B483B000AF78600B46FB70FB78002B51
:103730000DD04FF48053C4F202034FF48052C4F210
:103740000202D26911467A680A43DA610EE04FF448
:103750008053C4F202034FF48052C4F20202D269D1
:1037600011467A686FEA02020A40DA6107F10C0733
:10377000BD4680BC704700BF80B483B000AF134625
:103780000246FA710A46BA80BB71FB79002B02D05F
:10379000012B5ED0BBE0BB88072B27D84FF400631A
:1037A000C4F201034FF40062C4F201021268114630
:1037B000BA884FEA82024FF00F0000FA02F26FEA75
:1037C00002020A401A604FF40063C4F201034FF48E
:1037D0000062C4F2010212681146B879BA884FEA51
:1037E000820200FA02F20A431A6091E0BB88072BBA
:1037F0002ED9BB880F2B2BD84FF40063C4F20103E2
:103800004FF40062C4F2010252681146BA88A2F174
:1038100008024FEA82024FF00F0000FA02F26FEA4C
:1038200002020A405A604FF40063C4F201034FF4ED
:103830000062C4F2010252681146B879BA88A2F156
:1038400008024FEA820200FA02F20A435A605FE07D
:10385000FEE7BB88072B27D84FF44063C4F201036F
:103860004FF44062C4F2010212681146BA884FEA6E
:1038700082024FF00F0000FA02F26FEA02020A40E1
:103880001A604FF44063C4F201034FF44062C4F283
:10389000010212681146B879BA884FEA820200FA2A
:1038A00002F20A431A6033E0BB88072B2ED9BB888B
:1038B0000F2B2BD84FF44063C4F201034FF4406246
:1038C000C4F2010252681146BA88A2F108024FEA16
:1038D00082024FF00F0000FA02F26FEA02020A4081
:1038E0005A604FF44063C4F201034FF44062C4F2E3
:1038F000010252681146B879BA88A2F108024FEA6B
:10390000820200FA02F20A435A6001E0FEE7FEE793
:1039100007F10C07BD4680BC704700BF80B483B080
:1039200000AF02460B46FA71BB80FB79002B02D038
:10393000012B12D024E04FF40063C4F201034FF4D2
:103940000062C4F20102D2681146BA884FF0010049
:1039500000FA02F20A43DA6013E04FF44063C4F263
:1039600001034FF44062C4F20102D2681146BA88E2
:103970004FF0010000FA02F20A43DA6000BF00E0F3
:10398000FEE707F10C07BD4680BC704780B483B0EA
:1039900000AF02460B46FA71BB80FB79002B02D0C8
:1039A000012B14D028E04FF40063C4F201034FF45C
:1039B0000062C4F20102D2681146BA884FF00100D9
:1039C00000FA02F26FEA02020A40DA6015E04FF4F0
:1039D0004063C4F201034FF44062C4F20102D268B2
:1039E0001146BA884FF0010000FA02F26FEA0202B3
:1039F0000A40DA6000BF00E0FEE707F10C07BD46B1
:103A000080BC704780B582B000AF0346FB71FDF704
:103A1000D1FD40F27013C2F20003FA791A7000F07F
:103A200005F807F10807BD4680BD00BF80B500AFAF
:103A300040F27013C2F200031B78002B02D0012B5E
:103A400005D002E0FDF7A6FD02E000BF00E000BFE8
:103A500080BD00BF80B582B000AF0346FB80FA880E
:103A600041F287339A4202D84FF00003FB8040F2C4
:103A70007013C2F200031B78002B02D0012B07D079
:103A800004E0FB881846FDF7B7FD02E000BF00E048
:103A900000BF07F10807BD4680BD00BF80B582B0FA
:103AA00000AF0346FB7140F27013C2F200031B78B3
:103AB000002B02D0012B07D004E0FB791846FDF75C
:103AC000F5FD02E000BF00E000BF07F10807BD46BA
:103AD00080BD00BF80B500AF00F002F880BD00BF20
:103AE00080B582B000AFFFF7BDFD4FF0100000F0D1
:103AF00043F94FF0020000F01FF94FF48053C4F275
:103B000002034FF48052C4F20202126842F480327F
:103B10001A604FF00003FB7109E04FF48053C4F2C8
:103B200002031B684FEA534303F00103FB71FB7967
:103B300083F00103DBB2002BEFD14FF48053C4F2CA
:103B400002034FF48052C4F20202526842F48032FF
:103B50005A604FF48053C4F202034FF48052C4F20F
:103B60000202526842F4E0125A604FF48053C4F2E9
:103B700002034FF48052C4F20202126842F08072D3
:103B80001A604FF00003BB7109E04FF48053C4F298
:103B900002031B684FEA536303F00103BB71BB7957
:103BA00083F00103DBB2002BEFD14FF48053C4F25A
:103BB00002034FF48052C4F20202526842F0020241
:103BC0005A604FF000033B6009E04FF48053C4F2A9
:103BD00002035B684FEA930303F003033B603B6817
:103BE000022BF2D14FF48053C4F202034FF48052FF
:103BF000C4F20202526842F480625A604FF4805369
:103C0000C4F202034FF48052C4F20202526842F43A
:103C100000425A604FF48053C4F202034FF48052C2
:103C2000C4F20202926942F4606242F01C029A619C
:103C30004FF48053C4F202034FF48052C4F20202E4
:103C4000D26942F4020242F00202DA6140F27413D5
:103C5000C2F200034FF42242C0F24A421A6007F156
:103C60000807BD4680BD00BF80B400AF40F27413AA
:103C7000C2F200031B681846BD4680BC704700BFF7
:103C800080B400AF45F64443C4F200034FF0000295
:103C90001A6040F25C13C2F200034FF406421A802D
:103CA00045F64043C4F2000340F25C12C2F2000247
:103CB00012881A604FF000031846BD4680BC70475A
:103CC00080B586B000AFB9607B600346FB731346D6
:103CD000BB814FF000037B61FB7B03F07F03DBB212
:103CE0001846FEF7BFFA03461A463B6AD31A7B61B1
:103CF0007B687A691A60BA897B699A4201D2BB896A
:103D00007B61FB7B03F07F03DBB21846FEF71EFAF4
:103D100003461A463B6A9BB2D3189AB27B699BB2A0
:103D2000B86811461A4600F053FD7B69184607F142
:103D30001807BD4680BD00BF80B485B000AF786075
:103D40004FF00003FB604FF40053C4F202031B6802
:103D5000FB60FB6803F03803FB60FA687B68134381
:103D6000FB604FF40053C4F20203FA681A6007F1D3
:103D70001407BD4680BC704780B483B000AF786044
:103D80004FF40053C4F202034FF40052C4F2020293
:103D9000126822F010021A604FF40053C4F20203BA
:103DA0004FF40052C4F20202126811467A680A43C4
:103DB0001A6007F10C07BD4680BC704780B483B021
:103DC00000AF0346FB714FF46143CEF2000397F955
:103DD00007204FEA5212F97901F01F014FF001005C
:103DE00000FA01F143F8221007F10C07BD4680BC30
:103DF000704700BF80B500AF00F008F800F056F83B
:103E00004FF01200FFF7DAFF80BD00BF80B400AFB3
:103E10004FF41053C4F201034FF41052C4F20102E4
:103E2000526842F480725A604FF41053C4F2010396
:103E30004FF41052C4F20102926842F4704242F010
:103E400002029A604FF41053C4F201034FF410526F
:103E5000C4F20102926B42F4041242F480629A634B
:103E60004FF41053C4F201034FF41052C4F2010294
:103E7000926842F001029A604FF41053C4F20103B9
:103E80004FF41052C4F20102926842F004029A60A8
:103E900000BF4FF41053C4F201039B6803F0040306
:103EA000002BF6D1BD4680BC704700BF80B400AF88
:103EB0004FF42053C4F201034FF42052C4F2010224
:103EC000526842F480725A604FF42053C4F20103E6
:103ED0004FF42052C4F20102926842F4704242F060
:103EE00002029A604FF42053C4F201034FF42052AF
:103EF000C4F20102926B42F40E1242F448629A63D9
:103F00004FF42053C4F201034FF42052C4F20102D3
:103F1000926842F001029A604FF42053C4F2010308
:103F20004FF42052C4F20102926842F004029A60F7
:103F300000BF4FF42053C4F201039B6803F0040355
:103F4000002BF6D1BD4680BC704700BF80B400AFE7
:103F50004FF41053C4F201034FF41052C4F20102A3
:103F6000926842F400129A604FF42053C4F20103A5
:103F70004FF42052C4F20102926842F400129A6097
:103F8000BD4680BC704700BF80B582B000AF4FF423
:103F90001053C4F201035B6803F080034FEAD313AC
:103FA000002B0CBF00230123FB714FF41053C4F20C
:103FB00001031B6803F004034FEA9303002B0CBFBB
:103FC00000230123BB71BB79002B14D0FB79002B9C
:103FD00011D04FF41053C4F201034FF41052C4F245
:103FE0000102126822F004021A6040F2FC03C2F2DD
:103FF00000031B6898474FF42053C4F201035B6829
:1040000003F080034FEAD313002B0CBF00230123DE
:104010007B714FF42053C4F201031B6803F00403C7
:104020004FEA9303002B0CBF002301233B717B79E4
:10403000002B14D03B79002B11D04FF42053C4F245
:1040400001034FF42052C4F20102126822F004026C
:104050001A6040F20013C2F200031B68984707F190
:104060000807BD4680BD00BF80B500AF00F0F0FB83
:1040700080BD00BF80B400AFBD4680BC704700BFAC
:1040800080B485B000AF0346FB804FF00003FB8196
:1040900086E040F2AC03C2F200031A6840F2B003BB
:1040A000C2F200031B689A4201D1FB8996E040F2FC
:1040B000B803C2F200031B6803F10103BB60BA68D6
:1040C00040F28423C2F20003D21A44F6BA73C0F657
:1040D00000031B889A4204DB40F28423C2F20003EF
:1040E000BB6040F2B403C2F200031B68BA689A4294
:1040F00019D1FA8940F28433C2F200031B68D21846
:1041000040F28433C2F200031A60FA8940F27C2341
:10411000C2F200031B68D21840F27C23C2F20003F3
:104120001A60FB895AE040F2B803C2F200031A6831
:1041300040F2AC03C2F200031B681B78137040F21C
:10414000B803C2F20003BA681A6040F2AC03C2F2CC
:1041500000031B6803F1010240F2AC03C2F200034A
:104160001A6040F2AC03C2F200031B681A4640F228
:104170007C13C2F20003D21A44F6B873C0F60003EF
:104180001B889A4208DB40F2AC03C2F2000340F203
:104190007C12C2F200021A60FB8903F10103FB8169
:1041A000FA89FB889A42FFF474AFFA8940F28433AB
:1041B000C2F200031B68D21840F28433C2F200033B
:1041C0001A60FA8940F27C23C2F200031B68D218FD
:1041D00040F27C23C2F200031A60FB89184607F103
:1041E0001407BD4680BC704780B582B000AF40F276
:1041F000F503C2F200031B78012B40F0A48040F2CB
:104200008023C2F200031A6840F27C23C2F200034A
:104210001B689A4207D140F2F503C2F200034FF047
:1042200000021A708FE040F2B803C2F200031B686C
:104230009AB240F2B403C2F200031B689BB2D31AD5
:104240009BB2BB8040F28023C2F200031A6840F2A6
:104250007C23C2F200031B689A4219D0B7F90430DC
:10426000002B12DC44F6BA73C0F600031B881A4612
:1042700040F28423C2F20003D3181A4640F2B4037A
:10428000C2F200031B68D31A01E0B7F9043001E061
:104290004FF00003FB80FB88402B02D94FF0400316
:1042A000FB8040F2B403C2F200031A68FB88104698
:1042B0004FF0C0011A4600F03DFA40F2B403C2F2DA
:1042C00000031A68FB88D21840F2B403C2F200035C
:1042D0001A60FA8840F28023C2F200031B68D218E9
:1042E00040F28023C2F200031A6040F2B403C2F22B
:1042F00000031B681A4640F28423C2F20003D21A5C
:1043000044F6BA73C0F600031B889A4211DB40F2F0
:10431000B403C2F200031A6844F6BA73C0F600038D
:104320001B88C3F10003D21840F2B403C2F20003A9
:104330001A60FB884FF001001946FDF727FF4FF088
:104340000100FDF7B7FD07F10807BD4680BD00BFBE
:1043500090B589B002AF4FF000037B614FF00003CE
:104360003B6140F2B003C2F200031A6840F2B003AE
:10437000C2F20003196840F2AC03C2F200031B68EA
:10438000994214D344F6B873C0F60003198840F27A
:10439000B003C2F200031B689BB2CB1A99B240F281
:1043A0007C13C2F200039BB2CB189BB20DE040F22B
:1043B000AC03C2F200031B6899B240F2B003C2F230
:1043C00000031B689BB2CB1A9BB207F104044FF0A9
:1043D000000100914FF0030011461A462346FFF7F3
:1043E0006FFC03467B6140F2B003C2F200031A681F
:1043F0007B69D21840F2B003C2F200031A6040F2A7
:104400007813C2F200031A687B69D21840F278135D
:10441000C2F200031A6040F2B003C2F200031B684C
:104420001A4640F27C13C2F20003D21A44F6B87363
:10443000C0F600031B889A4211DB40F2B003C2F2BF
:1044400000031A6844F6B873C0F600031B88C3F172
:104450000003D21840F2B003C2F200031A607A6877
:104460007B699A427CD940F2B003C2F200031A6819
:1044700040F2B003C2F20003196840F2AC03C2F28A
:1044800000031B68994214D344F6B873C0F60003C6
:10449000198840F2B003C2F200031B689BB2CB1A2A
:1044A00099B240F27C13C2F200039BB2CB189BB2CC
:1044B0000DE040F2AC03C2F200031B6899B240F277
:1044C000B003C2F200031B689BB2CB1A9BB207F188
:1044D0000404796900914FF0030011461A462346FF
:1044E000FFF7EEFB03463B6140F2B003C2F200036C
:1044F0001A683B69D21840F2B003C2F200031A6096
:1045000040F27813C2F200031A683B69D21840F2F5
:104510007813C2F200031A6040F2B003C2F2000343
:104520001B681A4640F27C13C2F20003D21A44F60A
:10453000B873C0F600031B889A4211DB40F2B00347
:10454000C2F200031A6844F6B873C0F600031B8871
:10455000C3F10003D21840F2B003C2F200031A60A4
:1045600040F2B003C2F200031B689AB240F2AC03FF
:10457000C2F200031B689BB2D31A9BB2FB8140F2CC
:104580008433C2F200031A6840F27813C2F20003C7
:104590001B689A420FD0B7F90E30002B08DCB7F930
:1045A0000E2044F6B873C0F600031B88D31801E050
:1045B000B7F90E3001E04FF00003BB81BB8918460C
:1045C000FFF75EFD03467B814FF00300FDF79EFC85
:1045D00007F11C07BD4690BD80B500AF40F2F8035F
:1045E000C2F200031B68052B1BD140F20413C2F278
:1045F00000031B68052B14BF00220122D2B203F175
:10460000010140F20413C2F200031960002A08D02D
:1046100040F20413C2F200034FF000021A60FDF7EB
:10462000A1FE80BD80B483B000AF78604FF46D43CD
:10463000CEF200037A6842F0BE6242F42022DA60D1
:1046400007F10C07BD4680BC704700BF80B487B03F
:1046500000AF78604FF000037B614FF000033B61D7
:104660004FF00F03FB607B68DB78002B47D04FF4E3
:104670006D43CEF20003DB686FEA030303F4E063EB
:104680004FEA13237B617B69C3F104033B617B69C0
:10469000FA6822FA03F3FB607B685B781A463B6991
:1046A00002FA03F37B617B689B781A46FB68134030
:1046B0007A6913437B617B694FEA03137B614FF493
:1046C0006143CEF200037A68127811467A69D2B259
:1046D0005B1883F800234FF46143CEF200037A683D
:1046E00012784FEA5212D2B27968097801F01F01AC
:1046F0004FF0010000FA01F143F8221014E04FF4EA
:104700006143CEF200037A6812784FEA5212D2B2B5
:104710007968097801F01F014FF0010000FA01F1FA
:1047200002F1200243F8221007F11C07BD4680BCAD
:10473000704700BF80B489B000AF786013460A4666
:104740007A803B803B884FEA53039BB27B617B8836
:1047500003F1005303F540534FEA4303BB617B6908
:10476000FB6122E07B681B783B617B6803F10103FE
:104770007B607B681B784FEA03231A463B6913432F
:10478000FB60FB689AB2BB691A80BB6903F1020344
:10479000BB61BB6903F10203BB617B6803F10103E9
:1047A0007B60FB6903F1FF33FB61FB69002BD9D10F
:1047B0003B8803F00103DBB2002B04D07B681B783D
:1047C0001A46BB691A8007F12407BD4680BC7047B2
:1047D00080B487B000AF786013460A467A803B8089
:1047E0003B884FEA53039BB2FB607B8803F1005385
:1047F00003F540534FEA43033B61FB687B6114E0E0
:104800003B691B689AB27B681A807B6803F10103DD
:104810007B603B6903F104033B617B6803F10103A7
:104820007B607B6903F1FF337B617B69002BE7D100
:104830003B8803F00103DBB2002B03D03B691A78FD
:104840007B681A7007F11C07BD4680BC704700BF2B
:1048500080B500AF45F64443C4F200031B689AB22A
:1048600040F28833C2F200031A8040F28833C2F269
:1048700000031B889BB203F4007240F25C13C2F287
:1048800000031B881340002B16D045F64443C4F2A6
:1048900000034FF6FF521A6040F20813C2F2000301
:1048A0001B78DBB203F10103DAB240F20813C2F263
:1048B00000031A70FFF790FE40F28833C2F2000343
:1048C0001B889BB203F4004240F25C13C2F2000367
:1048D0001B881340002B01D0FCF7F8FE40F2883310
:1048E000C2F200031B889BB203F4806240F25C13A7
:1048F000C2F200031B881340002B0CD045F6444342
:10490000C4F200034FF6FF321A6040F22803C2F2ED
:1049100000035B68984780BD80F0004002E000BF64
:1049200081F0004142001FBF5FEA410392EA030F9A
:104930007FEA226C7FEA236C6AD04FEA1262D2EBE4
:104940001363C1BFD218414048404140B8BF5B42E9
:10495000192B88BF704710F0004F40F4000020F082
:104960007F4018BF404211F0004F41F4000121F098
:104970007F4118BF494292EA030F3FD0A2F10102E2
:1049800041FA03FC10EB0C00C3F1200301FA03F120
:1049900000F0004302D5494260EB4000B0F5000F43
:1049A00013D3B0F1807F06D340084FEA310102F102
:1049B0000102FE2A51D2B1F1004F40EBC25008BFB4
:1049C00020F0010040EA03007047490040EB00007E
:1049D00010F4000FA2F10102EDD1B0FA80FCACF1AD
:1049E000080CB2EB0C0200FA0CF0AABF00EBC250AC
:1049F00052421843BCBFD0401843704792F0000F9A
:104A000081F4000106BF80F400000132013BB5E7EC
:104A10004FEA41037FEA226C18BF7FEA236C21D062
:104A200092EA030F04D092F0000F08BF08467047C7
:104A300090EA010F1CBF0020704712F07F4F04D195
:104A4000400028BF40F00040704712F100723CBFA8
:104A500000F50000704700F0004343F0FE4040F4D2
:104A6000000070477FEA226216BF08467FEA236390
:104A70000146420206BF5FEA412390EA010F40F47B
:104A8000800070474FF0000304E000BF10F00043C7
:104A900048BF40425FEA000C08BF704743F09643AE
:104AA00001464FF000001CE050EA010208BF7047C9
:104AB0004FF000030AE000BF50EA010208BF704750
:104AC00011F0004302D5404261EB41015FEA010C65
:104AD00002BF84460146002043F0B64308BFA3F15D
:104AE0008053A3F50003BCFA8CF2083AA3EBC2533F
:104AF00010DB01FA02FC634400FA02FCC2F120025E
:104B0000BCF1004F20FA02F243EB020008BF20F094
:104B10000100704702F1200201FA02FCC2F12002FA
:104B200050EA4C0021FA02F243EB020008BF20EAEF
:104B3000DC7070474FF0FF0C1CEAD0521EBF1CEA1D
:104B4000D15392EA0C0F93EA0C0F6FD01A4480EA0B
:104B5000010C400218BF5FEA41211ED04FF00063F4
:104B600043EA501043EA5111A0FB01310CF0004020
:104B7000B1F5000F3EBF490041EAD3715B0040EA46
:104B8000010062F17F02FD2A1DD8B3F1004F40EB16
:104B9000C25008BF20F00100704790F0000F0CF0E9
:104BA000004C08BF49024CEA502040EA51207F3AAD
:104BB000C2BFD2F1FF0340EAC250704740F4000088
:104BC0004FF00003013A5DDC12F1190FDCBF00F079
:104BD00000407047C2F10002410021FA02F1C2F127
:104BE000200200FA02FC5FEA310040F1000053EAC3
:104BF0004C0308BF20EADC70704792F0000F00F011
:104C0000004C02BF400010F4000F013AF9D040EA16
:104C10000C0093F0000F01F0004C02BF490011F4AA
:104C2000000F013BF9D041EA0C018FE70CEAD153A8
:104C300092EA0C0F18BF93EA0C0F0AD030F0004C28
:104C400018BF31F0004CD8D180EA010000F00040DC
:104C5000704790F0000F17BF90F0004F084691F09A
:104C6000000F91F0004F14D092EA0C0F01D14202D4
:104C70000FD193EA0C0F03D14B0218BF084608D19D
:104C800080EA010000F0004040F0FE4040F40000E7
:104C9000704740F0FE4040F4400070474FF0FF0C7A
:104CA0001CEAD0521EBF1CEAD15392EA0C0F93EAC1
:104CB0000C0F69D0A2EB030280EA010C49024FEA13
:104CC000402037D04FF0805343EA111143EA1013CC
:104CD0000CF000408B4238BF5B0042F17D024FF484
:104CE000000C8B4224BF5B1A40EA0C00B3EB510F5F
:104CF00024BFA3EB510340EA5C00B3EB910F24BF48
:104D0000A3EB910340EA9C00B3EBD10F24BFA3EBCC
:104D1000D10340EADC001B0118BF5FEA1C1CE0D194
:104D2000FD2A3FF650AF8B4240EBC25008BF20F047
:104D3000010070470CF0004C4CEA50207F32C2BF9B
:104D4000D2F1FF0340EAC250704740F400004FF038
:104D50000003013A37E792F0000F00F0004C02BF69
:104D6000400010F4000F013AF9D040EA0C0093F033
:104D7000000F01F0004C02BF490011F4000F013B8D
:104D8000F9D041EA0C0195E70CEAD15392EA0C0FF5
:104D900008D142027FF47DAF93EA0C0F7FF470AF2D
:104DA000084676E793EA0C0F04D14B023FF44CAF70
:104DB00008466EE730F0004C18BF31F0004CCAD105
:104DC00030F000427FF45CAF31F000437FF43CAF41
:104DD0005FE700BF4FF0FF3C06E000BF4FF0010C63
:104DE00002E000BF4FF0010C4DF804CD4FEA400245
:104DF0004FEA41037FEA226C18BF7FEA236C11D08F
:104E000001B052EA530C18BF90EA010F58BFB2EB41
:104E1000030088BFC81738BF6FEAE17018BF40F0C1
:104E2000010070477FEA226C02D15FEA402C05D175
:104E30007FEA236CE4D15FEA412CE1D05DF8040BFA
:104E4000704700BF844608466146FFE70FB5FFF78D
:104E5000C9FF002848BF10F1000F0FBD4DF808ED45
:104E6000FFF7F4FF0CBF012000205DF808FB00BF36
:104E70004DF808EDFFF7EAFF34BF012000205DF890
:104E800008FB00BF4DF808EDFFF7E0FF94BF0120DD
:104E900000205DF808FB00BF4DF808EDFFF7D2FFDA
:104EA00094BF012000205DF808FB00BF4DF808ED1D
:104EB000FFF7C8FF34BF012000205DF808FB00BFEA
:104EC00042000ED2B2F1FE4F0BD34FF09E03B3EB74
:104ED000126209D44FEA002343F0004323FA02F0A0
:104EE00070474FF00000704712F1610F01D142028C
:104EF00002D14FF0FF3070474FF00000704700BF05
:104F00001201000202000040830440570002010227
:104F10000301000009024300020100C0320904003D
:104F20000001020201000524001001052401000116
:104F3000042402020524060001070582030800FF7D
:104F400009040100020A00000007050302400000F6
:104F500007058102400000000403090426035300F2
:104F600054004D006900630072006F0065006C0022
:104F700065006300740072006F006E0069006300DA
:104F8000730000003203530054004D003300320020
:104F900020005600690072007400750061006C000A
:104FA000200043004F004D00200050006F007200B1
:0C4FB0007400200020000000000100013F
:104FBC001A03530054004D0033003200310030000E
:104FCC0000000000000000000000000000C2010012
:104FDC000000080004010000C1250008F5250008A8
:104FEC0089270008B1270008BD270008652800089C
:104FFC0049290008AD280008D5280008FD2800081C
:10500C0000000000400000001515000841270008B2
:10501C0015150008151500081515000815150008BC
:10502C00151500081515000871270008004F000819
:10503C0012000000144F000843000000584F0008F5
:10504C00040000005C4F000826000000844F00089C
:10505C0032000000000000201A0000007C0100203B
:10506C007C0100208402002084020020E941000819
:10507C00151500081515000815150008151500085C
:10508C00151500081515000815150008151500084C
:10509C0051430008151500081515000815150008D2
:0450AC0015150008CE
:0400000508000000EF
:00000001FF
